{"contracts/Escrow.sol":{"Escrow":{"abi":[{"inputs":[{"internalType":"address","name":"_seller","type":"address"},{"internalType":"address","name":"_escrowAgent","type":"address"}],"stateMutability":"nonpayable","type":"constructor"},{"inputs":[{"internalType":"address","name":"from_","type":"address"},{"internalType":"address","name":"to_","type":"address"}],"name":"Escrow__ERROR_WHILE_SENDING_ETH","type":"error"},{"inputs":[{"internalType":"address","name":"caller_","type":"address"}],"name":"Escrow__ESCROW_AGENT_ONLY","type":"error"},{"inputs":[{"internalType":"address","name":"seller_","type":"address"},{"internalType":"address","name":"escrowAgent_","type":"address"}],"name":"Escrow__INVALID_ADDRESS","type":"error"},{"inputs":[],"name":"Escrow__INVALID_PAYMENT_AMOUNT","type":"error"},{"inputs":[{"internalType":"uint256","name":"price_","type":"uint256"}],"name":"Escrow__INVALID_PRICE_VALUE","type":"error"},{"inputs":[],"name":"Escrow__NO_FUNDS_DEPOSITED","type":"error"},{"inputs":[{"internalType":"address","name":"owner","type":"address"}],"name":"OwnableInvalidOwner","type":"error"},{"inputs":[{"internalType":"address","name":"account","type":"address"}],"name":"OwnableUnauthorizedAccount","type":"error"},{"anonymous":false,"inputs":[{"indexed":true,"internalType":"address","name":"buyer_","type":"address"},{"indexed":false,"internalType":"uint256","name":"amount_","type":"uint256"}],"name":"FundsDeposited","type":"event"},{"anonymous":false,"inputs":[{"indexed":true,"internalType":"address","name":"buyer_","type":"address"},{"indexed":true,"internalType":"address","name":"seller_","type":"address"},{"indexed":false,"internalType":"uint256","name":"amount_","type":"uint256"}],"name":"FundsReleased","type":"event"},{"anonymous":false,"inputs":[{"indexed":true,"internalType":"address","name":"buyer_","type":"address"},{"indexed":true,"internalType":"address","name":"seller_","type":"address"},{"indexed":false,"internalType":"uint256","name":"funds_","type":"uint256"},{"indexed":true,"internalType":"string","name":"salesId_","type":"string"}],"name":"NewSaleMade","type":"event"},{"anonymous":false,"inputs":[{"indexed":true,"internalType":"address","name":"previousOwner","type":"address"},{"indexed":true,"internalType":"address","name":"newOwner","type":"address"}],"name":"OwnershipTransferred","type":"event"},{"anonymous":false,"inputs":[{"indexed":true,"internalType":"address","name":"buyer_","type":"address"},{"indexed":false,"internalType":"uint256","name":"amount_","type":"uint256"}],"name":"TransactionCancelled","type":"event"},{"inputs":[],"name":"IDLength","outputs":[{"internalType":"uint256","name":"","type":"uint256"}],"stateMutability":"view","type":"function"},{"inputs":[{"internalType":"address","name":"_buyer","type":"address"}],"name":"cancelTransaction","outputs":[],"stateMutability":"nonpayable","type":"function"},{"inputs":[],"name":"depositFunds","outputs":[],"stateMutability":"payable","type":"function"},{"inputs":[],"name":"escrowAgent","outputs":[{"internalType":"address","name":"","type":"address"}],"stateMutability":"view","type":"function"},{"inputs":[{"internalType":"address","name":"_buyer","type":"address"}],"name":"getBuyerToAmountDeposited","outputs":[{"internalType":"uint256","name":"","type":"uint256"}],"stateMutability":"view","type":"function"},{"inputs":[],"name":"getCurrentPrice","outputs":[{"internalType":"uint256","name":"","type":"uint256"}],"stateMutability":"view","type":"function"},{"inputs":[],"name":"getEscrowAddress","outputs":[{"internalType":"address","name":"","type":"address"}],"stateMutability":"view","type":"function"},{"inputs":[{"internalType":"address","name":"_buyer","type":"address"}],"name":"getSalesIds","outputs":[{"internalType":"string[]","name":"","type":"string[]"}],"stateMutability":"view","type":"function"},{"inputs":[],"name":"getSellerAddress","outputs":[{"internalType":"address","name":"","type":"address"}],"stateMutability":"view","type":"function"},{"inputs":[],"name":"isFunded","outputs":[{"internalType":"bool","name":"","type":"bool"}],"stateMutability":"view","type":"function"},{"inputs":[],"name":"nextID","outputs":[{"internalType":"uint256","name":"","type":"uint256"}],"stateMutability":"view","type":"function"},{"inputs":[],"name":"owner","outputs":[{"internalType":"address","name":"","type":"address"}],"stateMutability":"view","type":"function"},{"inputs":[],"name":"price","outputs":[{"internalType":"uint256","name":"","type":"uint256"}],"stateMutability":"view","type":"function"},{"inputs":[{"internalType":"address","name":"_buyer","type":"address"}],"name":"releaseFunds","outputs":[],"stateMutability":"nonpayable","type":"function"},{"inputs":[],"name":"renounceOwnership","outputs":[],"stateMutability":"nonpayable","type":"function"},{"inputs":[],"name":"seller","outputs":[{"internalType":"address","name":"","type":"address"}],"stateMutability":"view","type":"function"},{"inputs":[{"internalType":"uint256","name":"_price","type":"uint256"}],"name":"setPrice","outputs":[],"stateMutability":"nonpayable","type":"function"},{"inputs":[{"internalType":"address","name":"newOwner","type":"address"}],"name":"transferOwnership","outputs":[],"stateMutability":"nonpayable","type":"function"}],"devdoc":{"errors":{"OwnableInvalidOwner(address)":[{"details":"The owner is not a valid owner account. (eg. `address(0)`)"}],"OwnableUnauthorizedAccount(address)":[{"details":"The caller account is not authorized to perform an operation."}]},"kind":"dev","methods":{"owner()":{"details":"Returns the address of the current owner."},"renounceOwnership()":{"details":"Leaves the contract without owner. It will not be possible to call `onlyOwner` functions. Can only be called by the current owner. NOTE: Renouncing ownership will leave the contract without an owner, thereby disabling any functionality that is only available to the owner."},"transferOwnership(address)":{"details":"Transfers ownership of the contract to a new account (`newOwner`). Can only be called by the current owner."}},"version":1},"evm":{"bytecode":{"linkReferences":{},"object":"60806040526611c37937e080006002556000600360146101000a81548160ff02191690831515021790555034801561003657600080fd5b50604051612a44380380612a4483398181016040528101906100589190610458565b33600073ffffffffffffffffffffffffffffffffffffffff168173ffffffffffffffffffffffffffffffffffffffff16036100cb5760006040517f1e4fbdf70000000000000000000000000000000000000000000000000000000081526004016100c291906104a7565b60405180910390fd5b6100da8161032360201b60201c565b506100f5676954f438198f723860c01b6103e760201b60201c565b61010f67115a6127e82ebc6360c01b6103e760201b60201c565b61012967e436a4b5916120a860c01b6103e760201b60201c565b600073ffffffffffffffffffffffffffffffffffffffff168273ffffffffffffffffffffffffffffffffffffffff1614801561017b575061017a675d1558fcab93db7260c01b6103ea60201b60201c565b5b806101d45750600073ffffffffffffffffffffffffffffffffffffffff168173ffffffffffffffffffffffffffffffffffffffff161480156101d357506101d267e65f4aea873edfa860c01b6103ea60201b60201c565b5b5b1561024c576101f367278ff4d9245c884560c01b6103e760201b60201c565b61020d6741e45132f942842360c01b6103e760201b60201c565b81816040517f4a27a3820000000000000000000000000000000000000000000000000000000081526004016102439291906104c2565b60405180910390fd5b61026667326bc1d3e7d005a460c01b6103e760201b60201c565b6102806754b9852778a8aff560c01b6103e760201b60201c565b81600160006101000a81548173ffffffffffffffffffffffffffffffffffffffff021916908373ffffffffffffffffffffffffffffffffffffffff1602179055506102db673956155700e9a3bf60c01b6103e760201b60201c565b80600360006101000a81548173ffffffffffffffffffffffffffffffffffffffff021916908373ffffffffffffffffffffffffffffffffffffffff16021790555050506104eb565b60008060009054906101000a900473ffffffffffffffffffffffffffffffffffffffff169050816000806101000a81548173ffffffffffffffffffffffffffffffffffffffff021916908373ffffffffffffffffffffffffffffffffffffffff1602179055508173ffffffffffffffffffffffffffffffffffffffff168173ffffffffffffffffffffffffffffffffffffffff167f8be0079c531659141344cd1fd0a4f28419497f9722a3daafe3b4186f6b6457e060405160405180910390a35050565b50565b600060019050919050565b600080fd5b600073ffffffffffffffffffffffffffffffffffffffff82169050919050565b6000610425826103fa565b9050919050565b6104358161041a565b811461044057600080fd5b50565b6000815190506104528161042c565b92915050565b6000806040838503121561046f5761046e6103f5565b5b600061047d85828601610443565b925050602061048e85828601610443565b9150509250929050565b6104a18161041a565b82525050565b60006020820190506104bc6000830184610498565b92915050565b60006040820190506104d76000830185610498565b6104e46020830184610498565b9392505050565b61254a806104fa6000396000f3fe6080604052600436106101095760003560e01c80638da5cb5b11610095578063b7f7fcb411610064578063b7f7fcb414610347578063e1f6c09814610372578063e2c41dbc1461039d578063eb91d37e146103a7578063f2fde38b146103d257610109565b80638da5cb5b1461028b57806391b7f5ed146102b6578063a035b1fe146102df578063a6a4dc361461030a57610109565b806333de96c6116100dc57806333de96c6146101b8578063560a5ffc146101e1578063715018a61461021e5780637c6543031461023557806384b09e861461026057610109565b806308551a531461010e578063122fd48a14610139578063192e7a7b146101645780631e96917d1461018d575b600080fd5b34801561011a57600080fd5b506101236103fb565b6040516101309190611b32565b60405180910390f35b34801561014557600080fd5b5061014e610421565b60405161015b9190611b32565b60405180910390f35b34801561017057600080fd5b5061018b60048036038101906101869190611b7e565b610487565b005b34801561019957600080fd5b506101a2610ab3565b6040516101af9190611bc4565b60405180910390f35b3480156101c457600080fd5b506101df60048036038101906101da9190611b7e565b610ab9565b005b3480156101ed57600080fd5b5061020860048036038101906102039190611b7e565b610ef6565b6040516102159190611d31565b60405180910390f35b34801561022a57600080fd5b5061023361104a565b005b34801561024157600080fd5b5061024a61105e565b6040516102579190611d6e565b60405180910390f35b34801561026c57600080fd5b50610275611071565b6040516102829190611b32565b60405180910390f35b34801561029757600080fd5b506102a06110d7565b6040516102ad9190611b32565b60405180910390f35b3480156102c257600080fd5b506102dd60048036038101906102d89190611db5565b611100565b005b3480156102eb57600080fd5b506102f461120b565b6040516103019190611bc4565b60405180910390f35b34801561031657600080fd5b50610331600480360381019061032c9190611b7e565b611211565b60405161033e9190611bc4565b60405180910390f35b34801561035357600080fd5b5061035c611296565b6040516103699190611bc4565b60405180910390f35b34801561037e57600080fd5b5061038761129b565b6040516103949190611b32565b60405180910390f35b6103a56112c1565b005b3480156103b357600080fd5b506103bc611456565b6040516103c99190611bc4565b60405180910390f35b3480156103de57600080fd5b506103f960048036038101906103f49190611b7e565b61149c565b005b600160009054906101000a900473ffffffffffffffffffffffffffffffffffffffff1681565b600061043767c0bcca71a76f409360c01b611522565b61044b67f73c7f171917d79a60c01b611522565b61045f677fc4eaadd7cff46360c01b611522565b600360009054906101000a900473ffffffffffffffffffffffffffffffffffffffff16905090565b61049b67aa2aeb1786522ee360c01b611522565b6104af672dd048f2752b4d5660c01b611522565b6104c36725f3c5104f584a9f60c01b611522565b6104d7672ae7f351ccabf66160c01b611522565b600360009054906101000a900473ffffffffffffffffffffffffffffffffffffffff1673ffffffffffffffffffffffffffffffffffffffff163373ffffffffffffffffffffffffffffffffffffffff161461059157610540674abf1d287a81b87760c01b611522565b61055467a830efde3a26778360c01b611522565b336040517f383fd0660000000000000000000000000000000000000000000000000000000081526004016105889190611b32565b60405180910390fd5b6105a5679d4e3fc921dc2ae160c01b611522565b6105b9679bbd5443267ba4eb60c01b611522565b6105cd670ec74b33d478574360c01b611522565b6105e1670d823941aef1ed7e60c01b611522565b6105f56732037215792bf2ac60c01b611522565b610609671481fd1623f269ae60c01b611522565b6000600560008373ffffffffffffffffffffffffffffffffffffffff1673ffffffffffffffffffffffffffffffffffffffff16815260200190815260200160002054905061066167a95e718276212e7a60c01b611522565b6106756703c57612e9d09b8e60c01b611522565b600081036106d757610691671a31bf5df2a7b0da60c01b611522565b6106a567072845e774d4165460c01b611522565b6040517fcc735fb500000000000000000000000000000000000000000000000000000000815260040160405180910390fd5b6106eb671e10f14b3b63793f60c01b611522565b6106ff670a5994dbd418f15e60c01b611522565b61071367efbe950fef23f5f560c01b611522565b6000600160009054906101000a900473ffffffffffffffffffffffffffffffffffffffff1673ffffffffffffffffffffffffffffffffffffffff168260405161075b90611e13565b60006040518083038185875af1925050503d8060008114610798576040519150601f19603f3d011682016040523d82523d6000602084013e61079d565b606091505b505090506107b56708b5907425b0a99060c01b611522565b6107c967c1df39c4ad4808d260c01b611522565b80610857576107e267f1609abc825f443660c01b611522565b6107f667e8466718864d561360c01b611522565b82600160009054906101000a900473ffffffffffffffffffffffffffffffffffffffff166040517f1c7faa3e00000000000000000000000000000000000000000000000000000000815260040161084e929190611e28565b60405180910390fd5b61086b67b967a6ea7e47b2f660c01b611522565b61087f67e45b9e41e426a12f60c01b611522565b6108936765a0315abdf80bf660c01b611522565b600061089d611525565b90506108b3677e7ec89e9e1c241b60c01b611522565b6108c767ad401398132eada260c01b611522565b600660008573ffffffffffffffffffffffffffffffffffffffff1673ffffffffffffffffffffffffffffffffffffffff16815260200190815260200160002081908060018154018082558091505060019003906000526020600020016000909190919091509081610938919061208c565b5061094d674c43d33bd52e2ff760c01b611522565b61096167e07e46d905bb7e2f60c01b611522565b600160009054906101000a900473ffffffffffffffffffffffffffffffffffffffff1673ffffffffffffffffffffffffffffffffffffffff168473ffffffffffffffffffffffffffffffffffffffff167feed10c470424824e4a4309075162f10b9989088b23fbed2349698cedd44493fb856040516109e09190611bc4565b60405180910390a36109fc67cde877797787b22c60c01b611522565b610a10678f53efa73b6e232060c01b611522565b80604051610a1e919061219a565b6040518091039020600160009054906101000a900473ffffffffffffffffffffffffffffffffffffffff1673ffffffffffffffffffffffffffffffffffffffff168573ffffffffffffffffffffffffffffffffffffffff167f1c3842c102b04c9bfbbfb12e50a97c92551d25fd980b8897a54bb0057271697986604051610aa59190611bc4565b60405180910390a450505050565b60045481565b610acd6702f7cfeade3e10a360c01b611522565b610ae1672dd048f2752b4d5660c01b611522565b610af56725f3c5104f584a9f60c01b611522565b610b09672ae7f351ccabf66160c01b611522565b600360009054906101000a900473ffffffffffffffffffffffffffffffffffffffff1673ffffffffffffffffffffffffffffffffffffffff163373ffffffffffffffffffffffffffffffffffffffff1614610bc357610b72674abf1d287a81b87760c01b611522565b610b8667a830efde3a26778360c01b611522565b336040517f383fd066000000000000000000000000000000000000000000000000000000008152600401610bba9190611b32565b60405180910390fd5b610bd7679d4e3fc921dc2ae160c01b611522565b610beb679bbd5443267ba4eb60c01b611522565b610bff673d58124022f91a0760c01b611522565b610c1367d17b115fa4c1fcc560c01b611522565b610c2767161ec1672dd5752160c01b611522565b610c3b6745af796330b9a9ef60c01b611522565b6000600560008373ffffffffffffffffffffffffffffffffffffffff1673ffffffffffffffffffffffffffffffffffffffff168152602001908152602001600020549050610c9367416121f0e228053f60c01b611522565b610ca767486a41fba840fad760c01b611522565b60008103610d0957610cc367541119cfbc471bdd60c01b611522565b610cd76732318246dd7ce7b960c01b611522565b6040517fcc735fb500000000000000000000000000000000000000000000000000000000815260040160405180910390fd5b610d1d67f94cad0538ef175660c01b611522565b610d3167e5e8d6bdb0e0c0de60c01b611522565b610d4567d0ef66419f68421760c01b611522565b60008273ffffffffffffffffffffffffffffffffffffffff1682604051610d6b90611e13565b60006040518083038185875af1925050503d8060008114610da8576040519150601f19603f3d011682016040523d82523d6000602084013e610dad565b606091505b50509050610dc567d59d9b9c92a973bd60c01b611522565b610dd9676fffbfcfd16f0dc060c01b611522565b80610e6757610df2678ee0e8033c8ec5f860c01b611522565b610e066771ecc78ec8b0674c60c01b611522565b82600160009054906101000a900473ffffffffffffffffffffffffffffffffffffffff166040517f1c7faa3e000000000000000000000000000000000000000000000000000000008152600401610e5e929190611e28565b60405180910390fd5b610e7b67f39811116353b56b60c01b611522565b610e8f671ca14fbbad47fe0e60c01b611522565b610ea367dc37d90ec40aa97f60c01b611522565b8273ffffffffffffffffffffffffffffffffffffffff167fdceb09d55d6cf1424fafc2f14ad2b30c9e2cae7d1b5f28ef953c630ffef6659e83604051610ee99190611bc4565b60405180910390a2505050565b6060610f0c673f38c18eed3a111160c01b611522565b610f2067f0c04b3d123efe2160c01b611522565b610f3467cc2c4495587f97ef60c01b611522565b600660008373ffffffffffffffffffffffffffffffffffffffff1673ffffffffffffffffffffffffffffffffffffffff168152602001908152602001600020805480602002602001604051908101604052809291908181526020016000905b8282101561103f578382906000526020600020018054610fb290611eaf565b80601f0160208091040260200160405190810160405280929190818152602001828054610fde90611eaf565b801561102b5780601f106110005761010080835404028352916020019161102b565b820191906000526020600020905b81548152906001019060200180831161100e57829003601f168201915b505050505081526020019060010190610f93565b505050509050919050565b61105261199e565b61105c6000611a25565b565b600360149054906101000a900460ff1681565b6000611087679a7bd2a60584089460c01b611522565b61109b67089425fdddebd75660c01b611522565b6110af670ed48f8e225b905d60c01b611522565b600160009054906101000a900473ffffffffffffffffffffffffffffffffffffffff16905090565b60008060009054906101000a900473ffffffffffffffffffffffffffffffffffffffff16905090565b61111467912115c65a16f02460c01b611522565b61111c61199e565b611130674a86fda23b13aac360c01b611522565b61114467c3673a7f0afd045f60c01b611522565b61115867388d42606eb53f5860c01b611522565b61116c6749aa4b59dbfeeaa060c01b611522565b600081116111d957611188671c4084be253d3d7060c01b611522565b61119c67371565ac4b25bf3060c01b611522565b806040517f25f92d1d0000000000000000000000000000000000000000000000000000000081526004016111d09190611bc4565b60405180910390fd5b6111ed67eac2c94ae43fef8660c01b611522565b611201674e7f2f3a507a1f0260c01b611522565b8060028190555050565b60025481565b600061122767e1bb6bf1e74cd31760c01b611522565b61123b676b3c6d264b2eb0b260c01b611522565b61124f67cdfda3bde14a6b9a60c01b611522565b600560008373ffffffffffffffffffffffffffffffffffffffff1673ffffffffffffffffffffffffffffffffffffffff168152602001908152602001600020549050919050565b600f81565b600360009054906101000a900473ffffffffffffffffffffffffffffffffffffffff1681565b6112d56715bb69c323d5093260c01b611522565b6112e96716d900f3b7309c5c60c01b611522565b6112fd6797fa80cb868eb69160c01b611522565b60025434146113605761131a67c6e8dff4a740782d60c01b611522565b61132e6795e23a2ed93eb28a60c01b611522565b6040517f3f6b3f8300000000000000000000000000000000000000000000000000000000815260040160405180910390fd5b61137467168ba11238fffd8360c01b611522565b61138867be15fb4910771b8d60c01b611522565b34600560003373ffffffffffffffffffffffffffffffffffffffff1673ffffffffffffffffffffffffffffffffffffffff16815260200190815260200160002060008282546113d791906121e0565b925050819055506113f267d7a3780fbebc6c5660c01b611522565b611406679e88553d702f601460c01b611522565b3373ffffffffffffffffffffffffffffffffffffffff167f543ba50a5eec5e6178218e364b1d0f396157b3c8fa278522c2cb7fd99407d4743460405161144c9190611bc4565b60405180910390a2565b600061146c67f953aa1a2aaa4f6b60c01b611522565b611480673059237596174f6c60c01b611522565b611494676fae06a252f186fd60c01b611522565b600254905090565b6114a461199e565b600073ffffffffffffffffffffffffffffffffffffffff168173ffffffffffffffffffffffffffffffffffffffff16036115165760006040517f1e4fbdf700000000000000000000000000000000000000000000000000000000815260040161150d9190611b32565b60405180910390fd5b61151f81611a25565b50565b50565b606061153b6714cb411391f9164f60c01b611522565b61154f6783ee684106651b3360c01b611522565b61156367aeece0d8d4927fa460c01b611522565b60006040518060600160405280602481526020016124f160249139905061159467c6fd576576e1baf460c01b611522565b6115a8676d275ae33b94dfa160c01b611522565b6000600f67ffffffffffffffff8111156115c5576115c4611e51565b5b6040519080825280601f01601f1916602001820160405280156115f75781602001600182028036833780820191505090505b50905061160e67f36fe7bad5fc7da560c01b611522565b611622674561a2c290691b2b60c01b611522565b60006116386796e0105bfee2b3d760c01b611522565b61164c67e31f8e23dcbaa43560c01b611522565b60006116626751f5d5b3a0b5a4ad60c01b611522565b5b60004244336004548560405160200161168095949392919061227d565b6040516020818303038152906040528051906020012090506001925060005b600f81101561174f5760008651836020846116ba919061230b565b602081106116cb576116ca61233c565b5b1a60f81b60f81c60ff166116df919061230b565b90508681815181106116f4576116f361233c565b5b602001015160f81c60f81b8683815181106117125761171161233c565b5b60200101907effffffffffffffffffffffffffffffffffffffffffffffffffffffffffffff1916908160001a90535050808060010191505061169f565b50600084905060005b600660003373ffffffffffffffffffffffffffffffffffffffff1673ffffffffffffffffffffffffffffffffffffffff1681526020019081526020016000208054905081101561186557816040516020016117b3919061219a565b60405160208183030381529060405280519060200120600660003373ffffffffffffffffffffffffffffffffffffffff1673ffffffffffffffffffffffffffffffffffffffff168152602001908152602001600020828154811061181a5761181961233c565b5b9060005260206000200160405160200161183491906123ee565b60405160208183030381529060405280519060200120036118585760009450611865565b8080600101915050611758565b50828061187190612405565b9350505050811580156118845750600a81105b6116635761189c67035b7e121df0342d60c01b611522565b6118b067a49bddc6d56b637a60c01b611522565b8161192c576118c967757ae34c61af600560c01b611522565b6118dd673ddf480bf3a5268060c01b611522565b6118f1677063d424d4cd5c0c60c01b611522565b6040517f08c379a0000000000000000000000000000000000000000000000000000000008152600401611923906124d0565b60405180910390fd5b61194067f60bfd51a90ab04f60c01b611522565b61195467d3be0a0562a5efb160c01b611522565b6004600081548092919061196790612405565b919050555061198067c37b8038c1e6d70560c01b611522565b61199467ebfc6c0f010a8ea460c01b611522565b8294505050505090565b6119a6611ae9565b73ffffffffffffffffffffffffffffffffffffffff166119c46110d7565b73ffffffffffffffffffffffffffffffffffffffff1614611a23576119e7611ae9565b6040517f118cdaa7000000000000000000000000000000000000000000000000000000008152600401611a1a9190611b32565b60405180910390fd5b565b60008060009054906101000a900473ffffffffffffffffffffffffffffffffffffffff169050816000806101000a81548173ffffffffffffffffffffffffffffffffffffffff021916908373ffffffffffffffffffffffffffffffffffffffff1602179055508173ffffffffffffffffffffffffffffffffffffffff168173ffffffffffffffffffffffffffffffffffffffff167f8be0079c531659141344cd1fd0a4f28419497f9722a3daafe3b4186f6b6457e060405160405180910390a35050565b600033905090565b600073ffffffffffffffffffffffffffffffffffffffff82169050919050565b6000611b1c82611af1565b9050919050565b611b2c81611b11565b82525050565b6000602082019050611b476000830184611b23565b92915050565b600080fd5b611b5b81611b11565b8114611b6657600080fd5b50565b600081359050611b7881611b52565b92915050565b600060208284031215611b9457611b93611b4d565b5b6000611ba284828501611b69565b91505092915050565b6000819050919050565b611bbe81611bab565b82525050565b6000602082019050611bd96000830184611bb5565b92915050565b600081519050919050565b600082825260208201905092915050565b6000819050602082019050919050565b600081519050919050565b600082825260208201905092915050565b60005b83811015611c45578082015181840152602081019050611c2a565b60008484015250505050565b6000601f19601f8301169050919050565b6000611c6d82611c0b565b611c778185611c16565b9350611c87818560208601611c27565b611c9081611c51565b840191505092915050565b6000611ca78383611c62565b905092915050565b6000602082019050919050565b6000611cc782611bdf565b611cd18185611bea565b935083602082028501611ce385611bfb565b8060005b85811015611d1f5784840389528151611d008582611c9b565b9450611d0b83611caf565b925060208a01995050600181019050611ce7565b50829750879550505050505092915050565b60006020820190508181036000830152611d4b8184611cbc565b905092915050565b60008115159050919050565b611d6881611d53565b82525050565b6000602082019050611d836000830184611d5f565b92915050565b611d9281611bab565b8114611d9d57600080fd5b50565b600081359050611daf81611d89565b92915050565b600060208284031215611dcb57611dca611b4d565b5b6000611dd984828501611da0565b91505092915050565b600081905092915050565b50565b6000611dfd600083611de2565b9150611e0882611ded565b600082019050919050565b6000611e1e82611df0565b9150819050919050565b6000604082019050611e3d6000830185611b23565b611e4a6020830184611b23565b9392505050565b7f4e487b7100000000000000000000000000000000000000000000000000000000600052604160045260246000fd5b7f4e487b7100000000000000000000000000000000000000000000000000000000600052602260045260246000fd5b60006002820490506001821680611ec757607f821691505b602082108103611eda57611ed9611e80565b5b50919050565b60008190508160005260206000209050919050565b60006020601f8301049050919050565b600082821b905092915050565b600060088302611f427fffffffffffffffffffffffffffffffffffffffffffffffffffffffffffffffff82611f05565b611f4c8683611f05565b95508019841693508086168417925050509392505050565b6000819050919050565b6000611f89611f84611f7f84611bab565b611f64565b611bab565b9050919050565b6000819050919050565b611fa383611f6e565b611fb7611faf82611f90565b848454611f12565b825550505050565b600090565b611fcc611fbf565b611fd7818484611f9a565b505050565b5b81811015611ffb57611ff0600082611fc4565b600181019050611fdd565b5050565b601f8211156120405761201181611ee0565b61201a84611ef5565b81016020851015612029578190505b61203d61203585611ef5565b830182611fdc565b50505b505050565b600082821c905092915050565b600061206360001984600802612045565b1980831691505092915050565b600061207c8383612052565b9150826002028217905092915050565b61209582611c0b565b67ffffffffffffffff8111156120ae576120ad611e51565b5b6120b88254611eaf565b6120c3828285611fff565b600060209050601f8311600181146120f657600084156120e4578287015190505b6120ee8582612070565b865550612156565b601f19841661210486611ee0565b60005b8281101561212c57848901518255600182019150602085019450602081019050612107565b868310156121495784890151612145601f891682612052565b8355505b6001600288020188555050505b505050505050565b600081905092915050565b600061217482611c0b565b61217e818561215e565b935061218e818560208601611c27565b80840191505092915050565b60006121a68284612169565b915081905092915050565b7f4e487b7100000000000000000000000000000000000000000000000000000000600052601160045260246000fd5b60006121eb82611bab565b91506121f683611bab565b925082820190508082111561220e5761220d6121b1565b5b92915050565b6000819050919050565b61222f61222a82611bab565b612214565b82525050565b60008160601b9050919050565b600061224d82612235565b9050919050565b600061225f82612242565b9050919050565b61227761227282611b11565b612254565b82525050565b6000612289828861221e565b602082019150612299828761221e565b6020820191506122a98286612266565b6014820191506122b9828561221e565b6020820191506122c9828461221e565b6020820191508190509695505050505050565b7f4e487b7100000000000000000000000000000000000000000000000000000000600052601260045260246000fd5b600061231682611bab565b915061232183611bab565b925082612331576123306122dc565b5b828206905092915050565b7f4e487b7100000000000000000000000000000000000000000000000000000000600052603260045260246000fd5b6000815461237881611eaf565b612382818661215e565b9450600182166000811461239d57600181146123b2576123e5565b60ff19831686528115158202860193506123e5565b6123bb85611ee0565b60005b838110156123dd578154818901526001820191506020810190506123be565b838801955050505b50505092915050565b60006123fa828461236b565b915081905092915050565b600061241082611bab565b91507fffffffffffffffffffffffffffffffffffffffffffffffffffffffffffffffff8203612442576124416121b1565b5b600182019050919050565b600082825260208201905092915050565b7f4661696c656420746f2067656e6572617465206120756e69717565204944206160008201527f66746572207365766572616c20617474656d7074732e00000000000000000000602082015250565b60006124ba60368361244d565b91506124c58261245e565b604082019050919050565b600060208201905081810360008301526124e9816124ad565b905091905056fe4142434445464748494a4b4c4d4e4f505152535455565758595a30313233343536373839a2646970667358221220dbba15db7e0a2c3bd355e3037ff59cc520711f3341007daf5a11ab655791194f64736f6c634300081a0033","opcodes":"PUSH1 0x80 PUSH1 0x40 MSTORE PUSH7 0x11C37937E08000 PUSH1 0x2 SSTORE PUSH1 0x0 PUSH1 0x3 PUSH1 0x14 PUSH2 0x100 EXP DUP2 SLOAD DUP2 PUSH1 0xFF MUL NOT AND SWAP1 DUP4 ISZERO ISZERO MUL OR SWAP1 SSTORE POP CALLVALUE DUP1 ISZERO PUSH2 0x36 JUMPI PUSH1 0x0 DUP1 REVERT JUMPDEST POP PUSH1 0x40 MLOAD PUSH2 0x2A44 CODESIZE SUB DUP1 PUSH2 0x2A44 DUP4 CODECOPY DUP2 DUP2 ADD PUSH1 0x40 MSTORE DUP2 ADD SWAP1 PUSH2 0x58 SWAP2 SWAP1 PUSH2 0x458 JUMP JUMPDEST CALLER PUSH1 0x0 PUSH20 0xFFFFFFFFFFFFFFFFFFFFFFFFFFFFFFFFFFFFFFFF AND DUP2 PUSH20 0xFFFFFFFFFFFFFFFFFFFFFFFFFFFFFFFFFFFFFFFF AND SUB PUSH2 0xCB JUMPI PUSH1 0x0 PUSH1 0x40 MLOAD PUSH32 0x1E4FBDF700000000000000000000000000000000000000000000000000000000 DUP2 MSTORE PUSH1 0x4 ADD PUSH2 0xC2 SWAP2 SWAP1 PUSH2 0x4A7 JUMP JUMPDEST PUSH1 0x40 MLOAD DUP1 SWAP2 SUB SWAP1 REVERT JUMPDEST PUSH2 0xDA DUP2 PUSH2 0x323 PUSH1 0x20 SHL PUSH1 0x20 SHR JUMP JUMPDEST POP PUSH2 0xF5 PUSH8 0x6954F438198F7238 PUSH1 0xC0 SHL PUSH2 0x3E7 PUSH1 0x20 SHL PUSH1 0x20 SHR JUMP JUMPDEST PUSH2 0x10F PUSH8 0x115A6127E82EBC63 PUSH1 0xC0 SHL PUSH2 0x3E7 PUSH1 0x20 SHL PUSH1 0x20 SHR JUMP JUMPDEST PUSH2 0x129 PUSH8 0xE436A4B5916120A8 PUSH1 0xC0 SHL PUSH2 0x3E7 PUSH1 0x20 SHL PUSH1 0x20 SHR JUMP JUMPDEST PUSH1 0x0 PUSH20 0xFFFFFFFFFFFFFFFFFFFFFFFFFFFFFFFFFFFFFFFF AND DUP3 PUSH20 0xFFFFFFFFFFFFFFFFFFFFFFFFFFFFFFFFFFFFFFFF AND EQ DUP1 ISZERO PUSH2 0x17B JUMPI POP PUSH2 0x17A PUSH8 0x5D1558FCAB93DB72 PUSH1 0xC0 SHL PUSH2 0x3EA PUSH1 0x20 SHL PUSH1 0x20 SHR JUMP JUMPDEST JUMPDEST DUP1 PUSH2 0x1D4 JUMPI POP PUSH1 0x0 PUSH20 0xFFFFFFFFFFFFFFFFFFFFFFFFFFFFFFFFFFFFFFFF AND DUP2 PUSH20 0xFFFFFFFFFFFFFFFFFFFFFFFFFFFFFFFFFFFFFFFF AND EQ DUP1 ISZERO PUSH2 0x1D3 JUMPI POP PUSH2 0x1D2 PUSH8 0xE65F4AEA873EDFA8 PUSH1 0xC0 SHL PUSH2 0x3EA PUSH1 0x20 SHL PUSH1 0x20 SHR JUMP JUMPDEST JUMPDEST JUMPDEST ISZERO PUSH2 0x24C JUMPI PUSH2 0x1F3 PUSH8 0x278FF4D9245C8845 PUSH1 0xC0 SHL PUSH2 0x3E7 PUSH1 0x20 SHL PUSH1 0x20 SHR JUMP JUMPDEST PUSH2 0x20D PUSH8 0x41E45132F9428423 PUSH1 0xC0 SHL PUSH2 0x3E7 PUSH1 0x20 SHL PUSH1 0x20 SHR JUMP JUMPDEST DUP2 DUP2 PUSH1 0x40 MLOAD PUSH32 0x4A27A38200000000000000000000000000000000000000000000000000000000 DUP2 MSTORE PUSH1 0x4 ADD PUSH2 0x243 SWAP3 SWAP2 SWAP1 PUSH2 0x4C2 JUMP JUMPDEST PUSH1 0x40 MLOAD DUP1 SWAP2 SUB SWAP1 REVERT JUMPDEST PUSH2 0x266 PUSH8 0x326BC1D3E7D005A4 PUSH1 0xC0 SHL PUSH2 0x3E7 PUSH1 0x20 SHL PUSH1 0x20 SHR JUMP JUMPDEST PUSH2 0x280 PUSH8 0x54B9852778A8AFF5 PUSH1 0xC0 SHL PUSH2 0x3E7 PUSH1 0x20 SHL PUSH1 0x20 SHR JUMP JUMPDEST DUP2 PUSH1 0x1 PUSH1 0x0 PUSH2 0x100 EXP DUP2 SLOAD DUP2 PUSH20 0xFFFFFFFFFFFFFFFFFFFFFFFFFFFFFFFFFFFFFFFF MUL NOT AND SWAP1 DUP4 PUSH20 0xFFFFFFFFFFFFFFFFFFFFFFFFFFFFFFFFFFFFFFFF AND MUL OR SWAP1 SSTORE POP PUSH2 0x2DB PUSH8 0x3956155700E9A3BF PUSH1 0xC0 SHL PUSH2 0x3E7 PUSH1 0x20 SHL PUSH1 0x20 SHR JUMP JUMPDEST DUP1 PUSH1 0x3 PUSH1 0x0 PUSH2 0x100 EXP DUP2 SLOAD DUP2 PUSH20 0xFFFFFFFFFFFFFFFFFFFFFFFFFFFFFFFFFFFFFFFF MUL NOT AND SWAP1 DUP4 PUSH20 0xFFFFFFFFFFFFFFFFFFFFFFFFFFFFFFFFFFFFFFFF AND MUL OR SWAP1 SSTORE POP POP POP PUSH2 0x4EB JUMP JUMPDEST PUSH1 0x0 DUP1 PUSH1 0x0 SWAP1 SLOAD SWAP1 PUSH2 0x100 EXP SWAP1 DIV PUSH20 0xFFFFFFFFFFFFFFFFFFFFFFFFFFFFFFFFFFFFFFFF AND SWAP1 POP DUP2 PUSH1 0x0 DUP1 PUSH2 0x100 EXP DUP2 SLOAD DUP2 PUSH20 0xFFFFFFFFFFFFFFFFFFFFFFFFFFFFFFFFFFFFFFFF MUL NOT AND SWAP1 DUP4 PUSH20 0xFFFFFFFFFFFFFFFFFFFFFFFFFFFFFFFFFFFFFFFF AND MUL OR SWAP1 SSTORE POP DUP2 PUSH20 0xFFFFFFFFFFFFFFFFFFFFFFFFFFFFFFFFFFFFFFFF AND DUP2 PUSH20 0xFFFFFFFFFFFFFFFFFFFFFFFFFFFFFFFFFFFFFFFF AND PUSH32 0x8BE0079C531659141344CD1FD0A4F28419497F9722A3DAAFE3B4186F6B6457E0 PUSH1 0x40 MLOAD PUSH1 0x40 MLOAD DUP1 SWAP2 SUB SWAP1 LOG3 POP POP JUMP JUMPDEST POP JUMP JUMPDEST PUSH1 0x0 PUSH1 0x1 SWAP1 POP SWAP2 SWAP1 POP JUMP JUMPDEST PUSH1 0x0 DUP1 REVERT JUMPDEST PUSH1 0x0 PUSH20 0xFFFFFFFFFFFFFFFFFFFFFFFFFFFFFFFFFFFFFFFF DUP3 AND SWAP1 POP SWAP2 SWAP1 POP JUMP JUMPDEST PUSH1 0x0 PUSH2 0x425 DUP3 PUSH2 0x3FA JUMP JUMPDEST SWAP1 POP SWAP2 SWAP1 POP JUMP JUMPDEST PUSH2 0x435 DUP2 PUSH2 0x41A JUMP JUMPDEST DUP2 EQ PUSH2 0x440 JUMPI PUSH1 0x0 DUP1 REVERT JUMPDEST POP JUMP JUMPDEST PUSH1 0x0 DUP2 MLOAD SWAP1 POP PUSH2 0x452 DUP2 PUSH2 0x42C JUMP JUMPDEST SWAP3 SWAP2 POP POP JUMP JUMPDEST PUSH1 0x0 DUP1 PUSH1 0x40 DUP4 DUP6 SUB SLT ISZERO PUSH2 0x46F JUMPI PUSH2 0x46E PUSH2 0x3F5 JUMP JUMPDEST JUMPDEST PUSH1 0x0 PUSH2 0x47D DUP6 DUP3 DUP7 ADD PUSH2 0x443 JUMP JUMPDEST SWAP3 POP POP PUSH1 0x20 PUSH2 0x48E DUP6 DUP3 DUP7 ADD PUSH2 0x443 JUMP JUMPDEST SWAP2 POP POP SWAP3 POP SWAP3 SWAP1 POP JUMP JUMPDEST PUSH2 0x4A1 DUP2 PUSH2 0x41A JUMP JUMPDEST DUP3 MSTORE POP POP JUMP JUMPDEST PUSH1 0x0 PUSH1 0x20 DUP3 ADD SWAP1 POP PUSH2 0x4BC PUSH1 0x0 DUP4 ADD DUP5 PUSH2 0x498 JUMP JUMPDEST SWAP3 SWAP2 POP POP JUMP JUMPDEST PUSH1 0x0 PUSH1 0x40 DUP3 ADD SWAP1 POP PUSH2 0x4D7 PUSH1 0x0 DUP4 ADD DUP6 PUSH2 0x498 JUMP JUMPDEST PUSH2 0x4E4 PUSH1 0x20 DUP4 ADD DUP5 PUSH2 0x498 JUMP JUMPDEST SWAP4 SWAP3 POP POP POP JUMP JUMPDEST PUSH2 0x254A DUP1 PUSH2 0x4FA PUSH1 0x0 CODECOPY PUSH1 0x0 RETURN INVALID PUSH1 0x80 PUSH1 0x40 MSTORE PUSH1 0x4 CALLDATASIZE LT PUSH2 0x109 JUMPI PUSH1 0x0 CALLDATALOAD PUSH1 0xE0 SHR DUP1 PUSH4 0x8DA5CB5B GT PUSH2 0x95 JUMPI DUP1 PUSH4 0xB7F7FCB4 GT PUSH2 0x64 JUMPI DUP1 PUSH4 0xB7F7FCB4 EQ PUSH2 0x347 JUMPI DUP1 PUSH4 0xE1F6C098 EQ PUSH2 0x372 JUMPI DUP1 PUSH4 0xE2C41DBC EQ PUSH2 0x39D JUMPI DUP1 PUSH4 0xEB91D37E EQ PUSH2 0x3A7 JUMPI DUP1 PUSH4 0xF2FDE38B EQ PUSH2 0x3D2 JUMPI PUSH2 0x109 JUMP JUMPDEST DUP1 PUSH4 0x8DA5CB5B EQ PUSH2 0x28B JUMPI DUP1 PUSH4 0x91B7F5ED EQ PUSH2 0x2B6 JUMPI DUP1 PUSH4 0xA035B1FE EQ PUSH2 0x2DF JUMPI DUP1 PUSH4 0xA6A4DC36 EQ PUSH2 0x30A JUMPI PUSH2 0x109 JUMP JUMPDEST DUP1 PUSH4 0x33DE96C6 GT PUSH2 0xDC JUMPI DUP1 PUSH4 0x33DE96C6 EQ PUSH2 0x1B8 JUMPI DUP1 PUSH4 0x560A5FFC EQ PUSH2 0x1E1 JUMPI DUP1 PUSH4 0x715018A6 EQ PUSH2 0x21E JUMPI DUP1 PUSH4 0x7C654303 EQ PUSH2 0x235 JUMPI DUP1 PUSH4 0x84B09E86 EQ PUSH2 0x260 JUMPI PUSH2 0x109 JUMP JUMPDEST DUP1 PUSH4 0x8551A53 EQ PUSH2 0x10E JUMPI DUP1 PUSH4 0x122FD48A EQ PUSH2 0x139 JUMPI DUP1 PUSH4 0x192E7A7B EQ PUSH2 0x164 JUMPI DUP1 PUSH4 0x1E96917D EQ PUSH2 0x18D JUMPI JUMPDEST PUSH1 0x0 DUP1 REVERT JUMPDEST CALLVALUE DUP1 ISZERO PUSH2 0x11A JUMPI PUSH1 0x0 DUP1 REVERT JUMPDEST POP PUSH2 0x123 PUSH2 0x3FB JUMP JUMPDEST PUSH1 0x40 MLOAD PUSH2 0x130 SWAP2 SWAP1 PUSH2 0x1B32 JUMP JUMPDEST PUSH1 0x40 MLOAD DUP1 SWAP2 SUB SWAP1 RETURN JUMPDEST CALLVALUE DUP1 ISZERO PUSH2 0x145 JUMPI PUSH1 0x0 DUP1 REVERT JUMPDEST POP PUSH2 0x14E PUSH2 0x421 JUMP JUMPDEST PUSH1 0x40 MLOAD PUSH2 0x15B SWAP2 SWAP1 PUSH2 0x1B32 JUMP JUMPDEST PUSH1 0x40 MLOAD DUP1 SWAP2 SUB SWAP1 RETURN JUMPDEST CALLVALUE DUP1 ISZERO PUSH2 0x170 JUMPI PUSH1 0x0 DUP1 REVERT JUMPDEST POP PUSH2 0x18B PUSH1 0x4 DUP1 CALLDATASIZE SUB DUP2 ADD SWAP1 PUSH2 0x186 SWAP2 SWAP1 PUSH2 0x1B7E JUMP JUMPDEST PUSH2 0x487 JUMP JUMPDEST STOP JUMPDEST CALLVALUE DUP1 ISZERO PUSH2 0x199 JUMPI PUSH1 0x0 DUP1 REVERT JUMPDEST POP PUSH2 0x1A2 PUSH2 0xAB3 JUMP JUMPDEST PUSH1 0x40 MLOAD PUSH2 0x1AF SWAP2 SWAP1 PUSH2 0x1BC4 JUMP JUMPDEST PUSH1 0x40 MLOAD DUP1 SWAP2 SUB SWAP1 RETURN JUMPDEST CALLVALUE DUP1 ISZERO PUSH2 0x1C4 JUMPI PUSH1 0x0 DUP1 REVERT JUMPDEST POP PUSH2 0x1DF PUSH1 0x4 DUP1 CALLDATASIZE SUB DUP2 ADD SWAP1 PUSH2 0x1DA SWAP2 SWAP1 PUSH2 0x1B7E JUMP JUMPDEST PUSH2 0xAB9 JUMP JUMPDEST STOP JUMPDEST CALLVALUE DUP1 ISZERO PUSH2 0x1ED JUMPI PUSH1 0x0 DUP1 REVERT JUMPDEST POP PUSH2 0x208 PUSH1 0x4 DUP1 CALLDATASIZE SUB DUP2 ADD SWAP1 PUSH2 0x203 SWAP2 SWAP1 PUSH2 0x1B7E JUMP JUMPDEST PUSH2 0xEF6 JUMP JUMPDEST PUSH1 0x40 MLOAD PUSH2 0x215 SWAP2 SWAP1 PUSH2 0x1D31 JUMP JUMPDEST PUSH1 0x40 MLOAD DUP1 SWAP2 SUB SWAP1 RETURN JUMPDEST CALLVALUE DUP1 ISZERO PUSH2 0x22A JUMPI PUSH1 0x0 DUP1 REVERT JUMPDEST POP PUSH2 0x233 PUSH2 0x104A JUMP JUMPDEST STOP JUMPDEST CALLVALUE DUP1 ISZERO PUSH2 0x241 JUMPI PUSH1 0x0 DUP1 REVERT JUMPDEST POP PUSH2 0x24A PUSH2 0x105E JUMP JUMPDEST PUSH1 0x40 MLOAD PUSH2 0x257 SWAP2 SWAP1 PUSH2 0x1D6E JUMP JUMPDEST PUSH1 0x40 MLOAD DUP1 SWAP2 SUB SWAP1 RETURN JUMPDEST CALLVALUE DUP1 ISZERO PUSH2 0x26C JUMPI PUSH1 0x0 DUP1 REVERT JUMPDEST POP PUSH2 0x275 PUSH2 0x1071 JUMP JUMPDEST PUSH1 0x40 MLOAD PUSH2 0x282 SWAP2 SWAP1 PUSH2 0x1B32 JUMP JUMPDEST PUSH1 0x40 MLOAD DUP1 SWAP2 SUB SWAP1 RETURN JUMPDEST CALLVALUE DUP1 ISZERO PUSH2 0x297 JUMPI PUSH1 0x0 DUP1 REVERT JUMPDEST POP PUSH2 0x2A0 PUSH2 0x10D7 JUMP JUMPDEST PUSH1 0x40 MLOAD PUSH2 0x2AD SWAP2 SWAP1 PUSH2 0x1B32 JUMP JUMPDEST PUSH1 0x40 MLOAD DUP1 SWAP2 SUB SWAP1 RETURN JUMPDEST CALLVALUE DUP1 ISZERO PUSH2 0x2C2 JUMPI PUSH1 0x0 DUP1 REVERT JUMPDEST POP PUSH2 0x2DD PUSH1 0x4 DUP1 CALLDATASIZE SUB DUP2 ADD SWAP1 PUSH2 0x2D8 SWAP2 SWAP1 PUSH2 0x1DB5 JUMP JUMPDEST PUSH2 0x1100 JUMP JUMPDEST STOP JUMPDEST CALLVALUE DUP1 ISZERO PUSH2 0x2EB JUMPI PUSH1 0x0 DUP1 REVERT JUMPDEST POP PUSH2 0x2F4 PUSH2 0x120B JUMP JUMPDEST PUSH1 0x40 MLOAD PUSH2 0x301 SWAP2 SWAP1 PUSH2 0x1BC4 JUMP JUMPDEST PUSH1 0x40 MLOAD DUP1 SWAP2 SUB SWAP1 RETURN JUMPDEST CALLVALUE DUP1 ISZERO PUSH2 0x316 JUMPI PUSH1 0x0 DUP1 REVERT JUMPDEST POP PUSH2 0x331 PUSH1 0x4 DUP1 CALLDATASIZE SUB DUP2 ADD SWAP1 PUSH2 0x32C SWAP2 SWAP1 PUSH2 0x1B7E JUMP JUMPDEST PUSH2 0x1211 JUMP JUMPDEST PUSH1 0x40 MLOAD PUSH2 0x33E SWAP2 SWAP1 PUSH2 0x1BC4 JUMP JUMPDEST PUSH1 0x40 MLOAD DUP1 SWAP2 SUB SWAP1 RETURN JUMPDEST CALLVALUE DUP1 ISZERO PUSH2 0x353 JUMPI PUSH1 0x0 DUP1 REVERT JUMPDEST POP PUSH2 0x35C PUSH2 0x1296 JUMP JUMPDEST PUSH1 0x40 MLOAD PUSH2 0x369 SWAP2 SWAP1 PUSH2 0x1BC4 JUMP JUMPDEST PUSH1 0x40 MLOAD DUP1 SWAP2 SUB SWAP1 RETURN JUMPDEST CALLVALUE DUP1 ISZERO PUSH2 0x37E JUMPI PUSH1 0x0 DUP1 REVERT JUMPDEST POP PUSH2 0x387 PUSH2 0x129B JUMP JUMPDEST PUSH1 0x40 MLOAD PUSH2 0x394 SWAP2 SWAP1 PUSH2 0x1B32 JUMP JUMPDEST PUSH1 0x40 MLOAD DUP1 SWAP2 SUB SWAP1 RETURN JUMPDEST PUSH2 0x3A5 PUSH2 0x12C1 JUMP JUMPDEST STOP JUMPDEST CALLVALUE DUP1 ISZERO PUSH2 0x3B3 JUMPI PUSH1 0x0 DUP1 REVERT JUMPDEST POP PUSH2 0x3BC PUSH2 0x1456 JUMP JUMPDEST PUSH1 0x40 MLOAD PUSH2 0x3C9 SWAP2 SWAP1 PUSH2 0x1BC4 JUMP JUMPDEST PUSH1 0x40 MLOAD DUP1 SWAP2 SUB SWAP1 RETURN JUMPDEST CALLVALUE DUP1 ISZERO PUSH2 0x3DE JUMPI PUSH1 0x0 DUP1 REVERT JUMPDEST POP PUSH2 0x3F9 PUSH1 0x4 DUP1 CALLDATASIZE SUB DUP2 ADD SWAP1 PUSH2 0x3F4 SWAP2 SWAP1 PUSH2 0x1B7E JUMP JUMPDEST PUSH2 0x149C JUMP JUMPDEST STOP JUMPDEST PUSH1 0x1 PUSH1 0x0 SWAP1 SLOAD SWAP1 PUSH2 0x100 EXP SWAP1 DIV PUSH20 0xFFFFFFFFFFFFFFFFFFFFFFFFFFFFFFFFFFFFFFFF AND DUP2 JUMP JUMPDEST PUSH1 0x0 PUSH2 0x437 PUSH8 0xC0BCCA71A76F4093 PUSH1 0xC0 SHL PUSH2 0x1522 JUMP JUMPDEST PUSH2 0x44B PUSH8 0xF73C7F171917D79A PUSH1 0xC0 SHL PUSH2 0x1522 JUMP JUMPDEST PUSH2 0x45F PUSH8 0x7FC4EAADD7CFF463 PUSH1 0xC0 SHL PUSH2 0x1522 JUMP JUMPDEST PUSH1 0x3 PUSH1 0x0 SWAP1 SLOAD SWAP1 PUSH2 0x100 EXP SWAP1 DIV PUSH20 0xFFFFFFFFFFFFFFFFFFFFFFFFFFFFFFFFFFFFFFFF AND SWAP1 POP SWAP1 JUMP JUMPDEST PUSH2 0x49B PUSH8 0xAA2AEB1786522EE3 PUSH1 0xC0 SHL PUSH2 0x1522 JUMP JUMPDEST PUSH2 0x4AF PUSH8 0x2DD048F2752B4D56 PUSH1 0xC0 SHL PUSH2 0x1522 JUMP JUMPDEST PUSH2 0x4C3 PUSH8 0x25F3C5104F584A9F PUSH1 0xC0 SHL PUSH2 0x1522 JUMP JUMPDEST PUSH2 0x4D7 PUSH8 0x2AE7F351CCABF661 PUSH1 0xC0 SHL PUSH2 0x1522 JUMP JUMPDEST PUSH1 0x3 PUSH1 0x0 SWAP1 SLOAD SWAP1 PUSH2 0x100 EXP SWAP1 DIV PUSH20 0xFFFFFFFFFFFFFFFFFFFFFFFFFFFFFFFFFFFFFFFF AND PUSH20 0xFFFFFFFFFFFFFFFFFFFFFFFFFFFFFFFFFFFFFFFF AND CALLER PUSH20 0xFFFFFFFFFFFFFFFFFFFFFFFFFFFFFFFFFFFFFFFF AND EQ PUSH2 0x591 JUMPI PUSH2 0x540 PUSH8 0x4ABF1D287A81B877 PUSH1 0xC0 SHL PUSH2 0x1522 JUMP JUMPDEST PUSH2 0x554 PUSH8 0xA830EFDE3A267783 PUSH1 0xC0 SHL PUSH2 0x1522 JUMP JUMPDEST CALLER PUSH1 0x40 MLOAD PUSH32 0x383FD06600000000000000000000000000000000000000000000000000000000 DUP2 MSTORE PUSH1 0x4 ADD PUSH2 0x588 SWAP2 SWAP1 PUSH2 0x1B32 JUMP JUMPDEST PUSH1 0x40 MLOAD DUP1 SWAP2 SUB SWAP1 REVERT JUMPDEST PUSH2 0x5A5 PUSH8 0x9D4E3FC921DC2AE1 PUSH1 0xC0 SHL PUSH2 0x1522 JUMP JUMPDEST PUSH2 0x5B9 PUSH8 0x9BBD5443267BA4EB PUSH1 0xC0 SHL PUSH2 0x1522 JUMP JUMPDEST PUSH2 0x5CD PUSH8 0xEC74B33D4785743 PUSH1 0xC0 SHL PUSH2 0x1522 JUMP JUMPDEST PUSH2 0x5E1 PUSH8 0xD823941AEF1ED7E PUSH1 0xC0 SHL PUSH2 0x1522 JUMP JUMPDEST PUSH2 0x5F5 PUSH8 0x32037215792BF2AC PUSH1 0xC0 SHL PUSH2 0x1522 JUMP JUMPDEST PUSH2 0x609 PUSH8 0x1481FD1623F269AE PUSH1 0xC0 SHL PUSH2 0x1522 JUMP JUMPDEST PUSH1 0x0 PUSH1 0x5 PUSH1 0x0 DUP4 PUSH20 0xFFFFFFFFFFFFFFFFFFFFFFFFFFFFFFFFFFFFFFFF AND PUSH20 0xFFFFFFFFFFFFFFFFFFFFFFFFFFFFFFFFFFFFFFFF AND DUP2 MSTORE PUSH1 0x20 ADD SWAP1 DUP2 MSTORE PUSH1 0x20 ADD PUSH1 0x0 KECCAK256 SLOAD SWAP1 POP PUSH2 0x661 PUSH8 0xA95E718276212E7A PUSH1 0xC0 SHL PUSH2 0x1522 JUMP JUMPDEST PUSH2 0x675 PUSH8 0x3C57612E9D09B8E PUSH1 0xC0 SHL PUSH2 0x1522 JUMP JUMPDEST PUSH1 0x0 DUP2 SUB PUSH2 0x6D7 JUMPI PUSH2 0x691 PUSH8 0x1A31BF5DF2A7B0DA PUSH1 0xC0 SHL PUSH2 0x1522 JUMP JUMPDEST PUSH2 0x6A5 PUSH8 0x72845E774D41654 PUSH1 0xC0 SHL PUSH2 0x1522 JUMP JUMPDEST PUSH1 0x40 MLOAD PUSH32 0xCC735FB500000000000000000000000000000000000000000000000000000000 DUP2 MSTORE PUSH1 0x4 ADD PUSH1 0x40 MLOAD DUP1 SWAP2 SUB SWAP1 REVERT JUMPDEST PUSH2 0x6EB PUSH8 0x1E10F14B3B63793F PUSH1 0xC0 SHL PUSH2 0x1522 JUMP JUMPDEST PUSH2 0x6FF PUSH8 0xA5994DBD418F15E PUSH1 0xC0 SHL PUSH2 0x1522 JUMP JUMPDEST PUSH2 0x713 PUSH8 0xEFBE950FEF23F5F5 PUSH1 0xC0 SHL PUSH2 0x1522 JUMP JUMPDEST PUSH1 0x0 PUSH1 0x1 PUSH1 0x0 SWAP1 SLOAD SWAP1 PUSH2 0x100 EXP SWAP1 DIV PUSH20 0xFFFFFFFFFFFFFFFFFFFFFFFFFFFFFFFFFFFFFFFF AND PUSH20 0xFFFFFFFFFFFFFFFFFFFFFFFFFFFFFFFFFFFFFFFF AND DUP3 PUSH1 0x40 MLOAD PUSH2 0x75B SWAP1 PUSH2 0x1E13 JUMP JUMPDEST PUSH1 0x0 PUSH1 0x40 MLOAD DUP1 DUP4 SUB DUP2 DUP6 DUP8 GAS CALL SWAP3 POP POP POP RETURNDATASIZE DUP1 PUSH1 0x0 DUP2 EQ PUSH2 0x798 JUMPI PUSH1 0x40 MLOAD SWAP2 POP PUSH1 0x1F NOT PUSH1 0x3F RETURNDATASIZE ADD AND DUP3 ADD PUSH1 0x40 MSTORE RETURNDATASIZE DUP3 MSTORE RETURNDATASIZE PUSH1 0x0 PUSH1 0x20 DUP5 ADD RETURNDATACOPY PUSH2 0x79D JUMP JUMPDEST PUSH1 0x60 SWAP2 POP JUMPDEST POP POP SWAP1 POP PUSH2 0x7B5 PUSH8 0x8B5907425B0A990 PUSH1 0xC0 SHL PUSH2 0x1522 JUMP JUMPDEST PUSH2 0x7C9 PUSH8 0xC1DF39C4AD4808D2 PUSH1 0xC0 SHL PUSH2 0x1522 JUMP JUMPDEST DUP1 PUSH2 0x857 JUMPI PUSH2 0x7E2 PUSH8 0xF1609ABC825F4436 PUSH1 0xC0 SHL PUSH2 0x1522 JUMP JUMPDEST PUSH2 0x7F6 PUSH8 0xE8466718864D5613 PUSH1 0xC0 SHL PUSH2 0x1522 JUMP JUMPDEST DUP3 PUSH1 0x1 PUSH1 0x0 SWAP1 SLOAD SWAP1 PUSH2 0x100 EXP SWAP1 DIV PUSH20 0xFFFFFFFFFFFFFFFFFFFFFFFFFFFFFFFFFFFFFFFF AND PUSH1 0x40 MLOAD PUSH32 0x1C7FAA3E00000000000000000000000000000000000000000000000000000000 DUP2 MSTORE PUSH1 0x4 ADD PUSH2 0x84E SWAP3 SWAP2 SWAP1 PUSH2 0x1E28 JUMP JUMPDEST PUSH1 0x40 MLOAD DUP1 SWAP2 SUB SWAP1 REVERT JUMPDEST PUSH2 0x86B PUSH8 0xB967A6EA7E47B2F6 PUSH1 0xC0 SHL PUSH2 0x1522 JUMP JUMPDEST PUSH2 0x87F PUSH8 0xE45B9E41E426A12F PUSH1 0xC0 SHL PUSH2 0x1522 JUMP JUMPDEST PUSH2 0x893 PUSH8 0x65A0315ABDF80BF6 PUSH1 0xC0 SHL PUSH2 0x1522 JUMP JUMPDEST PUSH1 0x0 PUSH2 0x89D PUSH2 0x1525 JUMP JUMPDEST SWAP1 POP PUSH2 0x8B3 PUSH8 0x7E7EC89E9E1C241B PUSH1 0xC0 SHL PUSH2 0x1522 JUMP JUMPDEST PUSH2 0x8C7 PUSH8 0xAD401398132EADA2 PUSH1 0xC0 SHL PUSH2 0x1522 JUMP JUMPDEST PUSH1 0x6 PUSH1 0x0 DUP6 PUSH20 0xFFFFFFFFFFFFFFFFFFFFFFFFFFFFFFFFFFFFFFFF AND PUSH20 0xFFFFFFFFFFFFFFFFFFFFFFFFFFFFFFFFFFFFFFFF AND DUP2 MSTORE PUSH1 0x20 ADD SWAP1 DUP2 MSTORE PUSH1 0x20 ADD PUSH1 0x0 KECCAK256 DUP2 SWAP1 DUP1 PUSH1 0x1 DUP2 SLOAD ADD DUP1 DUP3 SSTORE DUP1 SWAP2 POP POP PUSH1 0x1 SWAP1 SUB SWAP1 PUSH1 0x0 MSTORE PUSH1 0x20 PUSH1 0x0 KECCAK256 ADD PUSH1 0x0 SWAP1 SWAP2 SWAP1 SWAP2 SWAP1 SWAP2 POP SWAP1 DUP2 PUSH2 0x938 SWAP2 SWAP1 PUSH2 0x208C JUMP JUMPDEST POP PUSH2 0x94D PUSH8 0x4C43D33BD52E2FF7 PUSH1 0xC0 SHL PUSH2 0x1522 JUMP JUMPDEST PUSH2 0x961 PUSH8 0xE07E46D905BB7E2F PUSH1 0xC0 SHL PUSH2 0x1522 JUMP JUMPDEST PUSH1 0x1 PUSH1 0x0 SWAP1 SLOAD SWAP1 PUSH2 0x100 EXP SWAP1 DIV PUSH20 0xFFFFFFFFFFFFFFFFFFFFFFFFFFFFFFFFFFFFFFFF AND PUSH20 0xFFFFFFFFFFFFFFFFFFFFFFFFFFFFFFFFFFFFFFFF AND DUP5 PUSH20 0xFFFFFFFFFFFFFFFFFFFFFFFFFFFFFFFFFFFFFFFF AND PUSH32 0xEED10C470424824E4A4309075162F10B9989088B23FBED2349698CEDD44493FB DUP6 PUSH1 0x40 MLOAD PUSH2 0x9E0 SWAP2 SWAP1 PUSH2 0x1BC4 JUMP JUMPDEST PUSH1 0x40 MLOAD DUP1 SWAP2 SUB SWAP1 LOG3 PUSH2 0x9FC PUSH8 0xCDE877797787B22C PUSH1 0xC0 SHL PUSH2 0x1522 JUMP JUMPDEST PUSH2 0xA10 PUSH8 0x8F53EFA73B6E2320 PUSH1 0xC0 SHL PUSH2 0x1522 JUMP JUMPDEST DUP1 PUSH1 0x40 MLOAD PUSH2 0xA1E SWAP2 SWAP1 PUSH2 0x219A JUMP JUMPDEST PUSH1 0x40 MLOAD DUP1 SWAP2 SUB SWAP1 KECCAK256 PUSH1 0x1 PUSH1 0x0 SWAP1 SLOAD SWAP1 PUSH2 0x100 EXP SWAP1 DIV PUSH20 0xFFFFFFFFFFFFFFFFFFFFFFFFFFFFFFFFFFFFFFFF AND PUSH20 0xFFFFFFFFFFFFFFFFFFFFFFFFFFFFFFFFFFFFFFFF AND DUP6 PUSH20 0xFFFFFFFFFFFFFFFFFFFFFFFFFFFFFFFFFFFFFFFF AND PUSH32 0x1C3842C102B04C9BFBBFB12E50A97C92551D25FD980B8897A54BB00572716979 DUP7 PUSH1 0x40 MLOAD PUSH2 0xAA5 SWAP2 SWAP1 PUSH2 0x1BC4 JUMP JUMPDEST PUSH1 0x40 MLOAD DUP1 SWAP2 SUB SWAP1 LOG4 POP POP POP POP JUMP JUMPDEST PUSH1 0x4 SLOAD DUP2 JUMP JUMPDEST PUSH2 0xACD PUSH8 0x2F7CFEADE3E10A3 PUSH1 0xC0 SHL PUSH2 0x1522 JUMP JUMPDEST PUSH2 0xAE1 PUSH8 0x2DD048F2752B4D56 PUSH1 0xC0 SHL PUSH2 0x1522 JUMP JUMPDEST PUSH2 0xAF5 PUSH8 0x25F3C5104F584A9F PUSH1 0xC0 SHL PUSH2 0x1522 JUMP JUMPDEST PUSH2 0xB09 PUSH8 0x2AE7F351CCABF661 PUSH1 0xC0 SHL PUSH2 0x1522 JUMP JUMPDEST PUSH1 0x3 PUSH1 0x0 SWAP1 SLOAD SWAP1 PUSH2 0x100 EXP SWAP1 DIV PUSH20 0xFFFFFFFFFFFFFFFFFFFFFFFFFFFFFFFFFFFFFFFF AND PUSH20 0xFFFFFFFFFFFFFFFFFFFFFFFFFFFFFFFFFFFFFFFF AND CALLER PUSH20 0xFFFFFFFFFFFFFFFFFFFFFFFFFFFFFFFFFFFFFFFF AND EQ PUSH2 0xBC3 JUMPI PUSH2 0xB72 PUSH8 0x4ABF1D287A81B877 PUSH1 0xC0 SHL PUSH2 0x1522 JUMP JUMPDEST PUSH2 0xB86 PUSH8 0xA830EFDE3A267783 PUSH1 0xC0 SHL PUSH2 0x1522 JUMP JUMPDEST CALLER PUSH1 0x40 MLOAD PUSH32 0x383FD06600000000000000000000000000000000000000000000000000000000 DUP2 MSTORE PUSH1 0x4 ADD PUSH2 0xBBA SWAP2 SWAP1 PUSH2 0x1B32 JUMP JUMPDEST PUSH1 0x40 MLOAD DUP1 SWAP2 SUB SWAP1 REVERT JUMPDEST PUSH2 0xBD7 PUSH8 0x9D4E3FC921DC2AE1 PUSH1 0xC0 SHL PUSH2 0x1522 JUMP JUMPDEST PUSH2 0xBEB PUSH8 0x9BBD5443267BA4EB PUSH1 0xC0 SHL PUSH2 0x1522 JUMP JUMPDEST PUSH2 0xBFF PUSH8 0x3D58124022F91A07 PUSH1 0xC0 SHL PUSH2 0x1522 JUMP JUMPDEST PUSH2 0xC13 PUSH8 0xD17B115FA4C1FCC5 PUSH1 0xC0 SHL PUSH2 0x1522 JUMP JUMPDEST PUSH2 0xC27 PUSH8 0x161EC1672DD57521 PUSH1 0xC0 SHL PUSH2 0x1522 JUMP JUMPDEST PUSH2 0xC3B PUSH8 0x45AF796330B9A9EF PUSH1 0xC0 SHL PUSH2 0x1522 JUMP JUMPDEST PUSH1 0x0 PUSH1 0x5 PUSH1 0x0 DUP4 PUSH20 0xFFFFFFFFFFFFFFFFFFFFFFFFFFFFFFFFFFFFFFFF AND PUSH20 0xFFFFFFFFFFFFFFFFFFFFFFFFFFFFFFFFFFFFFFFF AND DUP2 MSTORE PUSH1 0x20 ADD SWAP1 DUP2 MSTORE PUSH1 0x20 ADD PUSH1 0x0 KECCAK256 SLOAD SWAP1 POP PUSH2 0xC93 PUSH8 0x416121F0E228053F PUSH1 0xC0 SHL PUSH2 0x1522 JUMP JUMPDEST PUSH2 0xCA7 PUSH8 0x486A41FBA840FAD7 PUSH1 0xC0 SHL PUSH2 0x1522 JUMP JUMPDEST PUSH1 0x0 DUP2 SUB PUSH2 0xD09 JUMPI PUSH2 0xCC3 PUSH8 0x541119CFBC471BDD PUSH1 0xC0 SHL PUSH2 0x1522 JUMP JUMPDEST PUSH2 0xCD7 PUSH8 0x32318246DD7CE7B9 PUSH1 0xC0 SHL PUSH2 0x1522 JUMP JUMPDEST PUSH1 0x40 MLOAD PUSH32 0xCC735FB500000000000000000000000000000000000000000000000000000000 DUP2 MSTORE PUSH1 0x4 ADD PUSH1 0x40 MLOAD DUP1 SWAP2 SUB SWAP1 REVERT JUMPDEST PUSH2 0xD1D PUSH8 0xF94CAD0538EF1756 PUSH1 0xC0 SHL PUSH2 0x1522 JUMP JUMPDEST PUSH2 0xD31 PUSH8 0xE5E8D6BDB0E0C0DE PUSH1 0xC0 SHL PUSH2 0x1522 JUMP JUMPDEST PUSH2 0xD45 PUSH8 0xD0EF66419F684217 PUSH1 0xC0 SHL PUSH2 0x1522 JUMP JUMPDEST PUSH1 0x0 DUP3 PUSH20 0xFFFFFFFFFFFFFFFFFFFFFFFFFFFFFFFFFFFFFFFF AND DUP3 PUSH1 0x40 MLOAD PUSH2 0xD6B SWAP1 PUSH2 0x1E13 JUMP JUMPDEST PUSH1 0x0 PUSH1 0x40 MLOAD DUP1 DUP4 SUB DUP2 DUP6 DUP8 GAS CALL SWAP3 POP POP POP RETURNDATASIZE DUP1 PUSH1 0x0 DUP2 EQ PUSH2 0xDA8 JUMPI PUSH1 0x40 MLOAD SWAP2 POP PUSH1 0x1F NOT PUSH1 0x3F RETURNDATASIZE ADD AND DUP3 ADD PUSH1 0x40 MSTORE RETURNDATASIZE DUP3 MSTORE RETURNDATASIZE PUSH1 0x0 PUSH1 0x20 DUP5 ADD RETURNDATACOPY PUSH2 0xDAD JUMP JUMPDEST PUSH1 0x60 SWAP2 POP JUMPDEST POP POP SWAP1 POP PUSH2 0xDC5 PUSH8 0xD59D9B9C92A973BD PUSH1 0xC0 SHL PUSH2 0x1522 JUMP JUMPDEST PUSH2 0xDD9 PUSH8 0x6FFFBFCFD16F0DC0 PUSH1 0xC0 SHL PUSH2 0x1522 JUMP JUMPDEST DUP1 PUSH2 0xE67 JUMPI PUSH2 0xDF2 PUSH8 0x8EE0E8033C8EC5F8 PUSH1 0xC0 SHL PUSH2 0x1522 JUMP JUMPDEST PUSH2 0xE06 PUSH8 0x71ECC78EC8B0674C PUSH1 0xC0 SHL PUSH2 0x1522 JUMP JUMPDEST DUP3 PUSH1 0x1 PUSH1 0x0 SWAP1 SLOAD SWAP1 PUSH2 0x100 EXP SWAP1 DIV PUSH20 0xFFFFFFFFFFFFFFFFFFFFFFFFFFFFFFFFFFFFFFFF AND PUSH1 0x40 MLOAD PUSH32 0x1C7FAA3E00000000000000000000000000000000000000000000000000000000 DUP2 MSTORE PUSH1 0x4 ADD PUSH2 0xE5E SWAP3 SWAP2 SWAP1 PUSH2 0x1E28 JUMP JUMPDEST PUSH1 0x40 MLOAD DUP1 SWAP2 SUB SWAP1 REVERT JUMPDEST PUSH2 0xE7B PUSH8 0xF39811116353B56B PUSH1 0xC0 SHL PUSH2 0x1522 JUMP JUMPDEST PUSH2 0xE8F PUSH8 0x1CA14FBBAD47FE0E PUSH1 0xC0 SHL PUSH2 0x1522 JUMP JUMPDEST PUSH2 0xEA3 PUSH8 0xDC37D90EC40AA97F PUSH1 0xC0 SHL PUSH2 0x1522 JUMP JUMPDEST DUP3 PUSH20 0xFFFFFFFFFFFFFFFFFFFFFFFFFFFFFFFFFFFFFFFF AND PUSH32 0xDCEB09D55D6CF1424FAFC2F14AD2B30C9E2CAE7D1B5F28EF953C630FFEF6659E DUP4 PUSH1 0x40 MLOAD PUSH2 0xEE9 SWAP2 SWAP1 PUSH2 0x1BC4 JUMP JUMPDEST PUSH1 0x40 MLOAD DUP1 SWAP2 SUB SWAP1 LOG2 POP POP POP JUMP JUMPDEST PUSH1 0x60 PUSH2 0xF0C PUSH8 0x3F38C18EED3A1111 PUSH1 0xC0 SHL PUSH2 0x1522 JUMP JUMPDEST PUSH2 0xF20 PUSH8 0xF0C04B3D123EFE21 PUSH1 0xC0 SHL PUSH2 0x1522 JUMP JUMPDEST PUSH2 0xF34 PUSH8 0xCC2C4495587F97EF PUSH1 0xC0 SHL PUSH2 0x1522 JUMP JUMPDEST PUSH1 0x6 PUSH1 0x0 DUP4 PUSH20 0xFFFFFFFFFFFFFFFFFFFFFFFFFFFFFFFFFFFFFFFF AND PUSH20 0xFFFFFFFFFFFFFFFFFFFFFFFFFFFFFFFFFFFFFFFF AND DUP2 MSTORE PUSH1 0x20 ADD SWAP1 DUP2 MSTORE PUSH1 0x20 ADD PUSH1 0x0 KECCAK256 DUP1 SLOAD DUP1 PUSH1 0x20 MUL PUSH1 0x20 ADD PUSH1 0x40 MLOAD SWAP1 DUP2 ADD PUSH1 0x40 MSTORE DUP1 SWAP3 SWAP2 SWAP1 DUP2 DUP2 MSTORE PUSH1 0x20 ADD PUSH1 0x0 SWAP1 JUMPDEST DUP3 DUP3 LT ISZERO PUSH2 0x103F JUMPI DUP4 DUP3 SWAP1 PUSH1 0x0 MSTORE PUSH1 0x20 PUSH1 0x0 KECCAK256 ADD DUP1 SLOAD PUSH2 0xFB2 SWAP1 PUSH2 0x1EAF JUMP JUMPDEST DUP1 PUSH1 0x1F ADD PUSH1 0x20 DUP1 SWAP2 DIV MUL PUSH1 0x20 ADD PUSH1 0x40 MLOAD SWAP1 DUP2 ADD PUSH1 0x40 MSTORE DUP1 SWAP3 SWAP2 SWAP1 DUP2 DUP2 MSTORE PUSH1 0x20 ADD DUP3 DUP1 SLOAD PUSH2 0xFDE SWAP1 PUSH2 0x1EAF JUMP JUMPDEST DUP1 ISZERO PUSH2 0x102B JUMPI DUP1 PUSH1 0x1F LT PUSH2 0x1000 JUMPI PUSH2 0x100 DUP1 DUP4 SLOAD DIV MUL DUP4 MSTORE SWAP2 PUSH1 0x20 ADD SWAP2 PUSH2 0x102B JUMP JUMPDEST DUP3 ADD SWAP2 SWAP1 PUSH1 0x0 MSTORE PUSH1 0x20 PUSH1 0x0 KECCAK256 SWAP1 JUMPDEST DUP2 SLOAD DUP2 MSTORE SWAP1 PUSH1 0x1 ADD SWAP1 PUSH1 0x20 ADD DUP1 DUP4 GT PUSH2 0x100E JUMPI DUP3 SWAP1 SUB PUSH1 0x1F AND DUP3 ADD SWAP2 JUMPDEST POP POP POP POP POP DUP2 MSTORE PUSH1 0x20 ADD SWAP1 PUSH1 0x1 ADD SWAP1 PUSH2 0xF93 JUMP JUMPDEST POP POP POP POP SWAP1 POP SWAP2 SWAP1 POP JUMP JUMPDEST PUSH2 0x1052 PUSH2 0x199E JUMP JUMPDEST PUSH2 0x105C PUSH1 0x0 PUSH2 0x1A25 JUMP JUMPDEST JUMP JUMPDEST PUSH1 0x3 PUSH1 0x14 SWAP1 SLOAD SWAP1 PUSH2 0x100 EXP SWAP1 DIV PUSH1 0xFF AND DUP2 JUMP JUMPDEST PUSH1 0x0 PUSH2 0x1087 PUSH8 0x9A7BD2A605840894 PUSH1 0xC0 SHL PUSH2 0x1522 JUMP JUMPDEST PUSH2 0x109B PUSH8 0x89425FDDDEBD756 PUSH1 0xC0 SHL PUSH2 0x1522 JUMP JUMPDEST PUSH2 0x10AF PUSH8 0xED48F8E225B905D PUSH1 0xC0 SHL PUSH2 0x1522 JUMP JUMPDEST PUSH1 0x1 PUSH1 0x0 SWAP1 SLOAD SWAP1 PUSH2 0x100 EXP SWAP1 DIV PUSH20 0xFFFFFFFFFFFFFFFFFFFFFFFFFFFFFFFFFFFFFFFF AND SWAP1 POP SWAP1 JUMP JUMPDEST PUSH1 0x0 DUP1 PUSH1 0x0 SWAP1 SLOAD SWAP1 PUSH2 0x100 EXP SWAP1 DIV PUSH20 0xFFFFFFFFFFFFFFFFFFFFFFFFFFFFFFFFFFFFFFFF AND SWAP1 POP SWAP1 JUMP JUMPDEST PUSH2 0x1114 PUSH8 0x912115C65A16F024 PUSH1 0xC0 SHL PUSH2 0x1522 JUMP JUMPDEST PUSH2 0x111C PUSH2 0x199E JUMP JUMPDEST PUSH2 0x1130 PUSH8 0x4A86FDA23B13AAC3 PUSH1 0xC0 SHL PUSH2 0x1522 JUMP JUMPDEST PUSH2 0x1144 PUSH8 0xC3673A7F0AFD045F PUSH1 0xC0 SHL PUSH2 0x1522 JUMP JUMPDEST PUSH2 0x1158 PUSH8 0x388D42606EB53F58 PUSH1 0xC0 SHL PUSH2 0x1522 JUMP JUMPDEST PUSH2 0x116C PUSH8 0x49AA4B59DBFEEAA0 PUSH1 0xC0 SHL PUSH2 0x1522 JUMP JUMPDEST PUSH1 0x0 DUP2 GT PUSH2 0x11D9 JUMPI PUSH2 0x1188 PUSH8 0x1C4084BE253D3D70 PUSH1 0xC0 SHL PUSH2 0x1522 JUMP JUMPDEST PUSH2 0x119C PUSH8 0x371565AC4B25BF30 PUSH1 0xC0 SHL PUSH2 0x1522 JUMP JUMPDEST DUP1 PUSH1 0x40 MLOAD PUSH32 0x25F92D1D00000000000000000000000000000000000000000000000000000000 DUP2 MSTORE PUSH1 0x4 ADD PUSH2 0x11D0 SWAP2 SWAP1 PUSH2 0x1BC4 JUMP JUMPDEST PUSH1 0x40 MLOAD DUP1 SWAP2 SUB SWAP1 REVERT JUMPDEST PUSH2 0x11ED PUSH8 0xEAC2C94AE43FEF86 PUSH1 0xC0 SHL PUSH2 0x1522 JUMP JUMPDEST PUSH2 0x1201 PUSH8 0x4E7F2F3A507A1F02 PUSH1 0xC0 SHL PUSH2 0x1522 JUMP JUMPDEST DUP1 PUSH1 0x2 DUP2 SWAP1 SSTORE POP POP JUMP JUMPDEST PUSH1 0x2 SLOAD DUP2 JUMP JUMPDEST PUSH1 0x0 PUSH2 0x1227 PUSH8 0xE1BB6BF1E74CD317 PUSH1 0xC0 SHL PUSH2 0x1522 JUMP JUMPDEST PUSH2 0x123B PUSH8 0x6B3C6D264B2EB0B2 PUSH1 0xC0 SHL PUSH2 0x1522 JUMP JUMPDEST PUSH2 0x124F PUSH8 0xCDFDA3BDE14A6B9A PUSH1 0xC0 SHL PUSH2 0x1522 JUMP JUMPDEST PUSH1 0x5 PUSH1 0x0 DUP4 PUSH20 0xFFFFFFFFFFFFFFFFFFFFFFFFFFFFFFFFFFFFFFFF AND PUSH20 0xFFFFFFFFFFFFFFFFFFFFFFFFFFFFFFFFFFFFFFFF AND DUP2 MSTORE PUSH1 0x20 ADD SWAP1 DUP2 MSTORE PUSH1 0x20 ADD PUSH1 0x0 KECCAK256 SLOAD SWAP1 POP SWAP2 SWAP1 POP JUMP JUMPDEST PUSH1 0xF DUP2 JUMP JUMPDEST PUSH1 0x3 PUSH1 0x0 SWAP1 SLOAD SWAP1 PUSH2 0x100 EXP SWAP1 DIV PUSH20 0xFFFFFFFFFFFFFFFFFFFFFFFFFFFFFFFFFFFFFFFF AND DUP2 JUMP JUMPDEST PUSH2 0x12D5 PUSH8 0x15BB69C323D50932 PUSH1 0xC0 SHL PUSH2 0x1522 JUMP JUMPDEST PUSH2 0x12E9 PUSH8 0x16D900F3B7309C5C PUSH1 0xC0 SHL PUSH2 0x1522 JUMP JUMPDEST PUSH2 0x12FD PUSH8 0x97FA80CB868EB691 PUSH1 0xC0 SHL PUSH2 0x1522 JUMP JUMPDEST PUSH1 0x2 SLOAD CALLVALUE EQ PUSH2 0x1360 JUMPI PUSH2 0x131A PUSH8 0xC6E8DFF4A740782D PUSH1 0xC0 SHL PUSH2 0x1522 JUMP JUMPDEST PUSH2 0x132E PUSH8 0x95E23A2ED93EB28A PUSH1 0xC0 SHL PUSH2 0x1522 JUMP JUMPDEST PUSH1 0x40 MLOAD PUSH32 0x3F6B3F8300000000000000000000000000000000000000000000000000000000 DUP2 MSTORE PUSH1 0x4 ADD PUSH1 0x40 MLOAD DUP1 SWAP2 SUB SWAP1 REVERT JUMPDEST PUSH2 0x1374 PUSH8 0x168BA11238FFFD83 PUSH1 0xC0 SHL PUSH2 0x1522 JUMP JUMPDEST PUSH2 0x1388 PUSH8 0xBE15FB4910771B8D PUSH1 0xC0 SHL PUSH2 0x1522 JUMP JUMPDEST CALLVALUE PUSH1 0x5 PUSH1 0x0 CALLER PUSH20 0xFFFFFFFFFFFFFFFFFFFFFFFFFFFFFFFFFFFFFFFF AND PUSH20 0xFFFFFFFFFFFFFFFFFFFFFFFFFFFFFFFFFFFFFFFF AND DUP2 MSTORE PUSH1 0x20 ADD SWAP1 DUP2 MSTORE PUSH1 0x20 ADD PUSH1 0x0 KECCAK256 PUSH1 0x0 DUP3 DUP3 SLOAD PUSH2 0x13D7 SWAP2 SWAP1 PUSH2 0x21E0 JUMP JUMPDEST SWAP3 POP POP DUP2 SWAP1 SSTORE POP PUSH2 0x13F2 PUSH8 0xD7A3780FBEBC6C56 PUSH1 0xC0 SHL PUSH2 0x1522 JUMP JUMPDEST PUSH2 0x1406 PUSH8 0x9E88553D702F6014 PUSH1 0xC0 SHL PUSH2 0x1522 JUMP JUMPDEST CALLER PUSH20 0xFFFFFFFFFFFFFFFFFFFFFFFFFFFFFFFFFFFFFFFF AND PUSH32 0x543BA50A5EEC5E6178218E364B1D0F396157B3C8FA278522C2CB7FD99407D474 CALLVALUE PUSH1 0x40 MLOAD PUSH2 0x144C SWAP2 SWAP1 PUSH2 0x1BC4 JUMP JUMPDEST PUSH1 0x40 MLOAD DUP1 SWAP2 SUB SWAP1 LOG2 JUMP JUMPDEST PUSH1 0x0 PUSH2 0x146C PUSH8 0xF953AA1A2AAA4F6B PUSH1 0xC0 SHL PUSH2 0x1522 JUMP JUMPDEST PUSH2 0x1480 PUSH8 0x3059237596174F6C PUSH1 0xC0 SHL PUSH2 0x1522 JUMP JUMPDEST PUSH2 0x1494 PUSH8 0x6FAE06A252F186FD PUSH1 0xC0 SHL PUSH2 0x1522 JUMP JUMPDEST PUSH1 0x2 SLOAD SWAP1 POP SWAP1 JUMP JUMPDEST PUSH2 0x14A4 PUSH2 0x199E JUMP JUMPDEST PUSH1 0x0 PUSH20 0xFFFFFFFFFFFFFFFFFFFFFFFFFFFFFFFFFFFFFFFF AND DUP2 PUSH20 0xFFFFFFFFFFFFFFFFFFFFFFFFFFFFFFFFFFFFFFFF AND SUB PUSH2 0x1516 JUMPI PUSH1 0x0 PUSH1 0x40 MLOAD PUSH32 0x1E4FBDF700000000000000000000000000000000000000000000000000000000 DUP2 MSTORE PUSH1 0x4 ADD PUSH2 0x150D SWAP2 SWAP1 PUSH2 0x1B32 JUMP JUMPDEST PUSH1 0x40 MLOAD DUP1 SWAP2 SUB SWAP1 REVERT JUMPDEST PUSH2 0x151F DUP2 PUSH2 0x1A25 JUMP JUMPDEST POP JUMP JUMPDEST POP JUMP JUMPDEST PUSH1 0x60 PUSH2 0x153B PUSH8 0x14CB411391F9164F PUSH1 0xC0 SHL PUSH2 0x1522 JUMP JUMPDEST PUSH2 0x154F PUSH8 0x83EE684106651B33 PUSH1 0xC0 SHL PUSH2 0x1522 JUMP JUMPDEST PUSH2 0x1563 PUSH8 0xAEECE0D8D4927FA4 PUSH1 0xC0 SHL PUSH2 0x1522 JUMP JUMPDEST PUSH1 0x0 PUSH1 0x40 MLOAD DUP1 PUSH1 0x60 ADD PUSH1 0x40 MSTORE DUP1 PUSH1 0x24 DUP2 MSTORE PUSH1 0x20 ADD PUSH2 0x24F1 PUSH1 0x24 SWAP2 CODECOPY SWAP1 POP PUSH2 0x1594 PUSH8 0xC6FD576576E1BAF4 PUSH1 0xC0 SHL PUSH2 0x1522 JUMP JUMPDEST PUSH2 0x15A8 PUSH8 0x6D275AE33B94DFA1 PUSH1 0xC0 SHL PUSH2 0x1522 JUMP JUMPDEST PUSH1 0x0 PUSH1 0xF PUSH8 0xFFFFFFFFFFFFFFFF DUP2 GT ISZERO PUSH2 0x15C5 JUMPI PUSH2 0x15C4 PUSH2 0x1E51 JUMP JUMPDEST JUMPDEST PUSH1 0x40 MLOAD SWAP1 DUP1 DUP3 MSTORE DUP1 PUSH1 0x1F ADD PUSH1 0x1F NOT AND PUSH1 0x20 ADD DUP3 ADD PUSH1 0x40 MSTORE DUP1 ISZERO PUSH2 0x15F7 JUMPI DUP2 PUSH1 0x20 ADD PUSH1 0x1 DUP3 MUL DUP1 CALLDATASIZE DUP4 CALLDATACOPY DUP1 DUP3 ADD SWAP2 POP POP SWAP1 POP JUMPDEST POP SWAP1 POP PUSH2 0x160E PUSH8 0xF36FE7BAD5FC7DA5 PUSH1 0xC0 SHL PUSH2 0x1522 JUMP JUMPDEST PUSH2 0x1622 PUSH8 0x4561A2C290691B2B PUSH1 0xC0 SHL PUSH2 0x1522 JUMP JUMPDEST PUSH1 0x0 PUSH2 0x1638 PUSH8 0x96E0105BFEE2B3D7 PUSH1 0xC0 SHL PUSH2 0x1522 JUMP JUMPDEST PUSH2 0x164C PUSH8 0xE31F8E23DCBAA435 PUSH1 0xC0 SHL PUSH2 0x1522 JUMP JUMPDEST PUSH1 0x0 PUSH2 0x1662 PUSH8 0x51F5D5B3A0B5A4AD PUSH1 0xC0 SHL PUSH2 0x1522 JUMP JUMPDEST JUMPDEST PUSH1 0x0 TIMESTAMP PREVRANDAO CALLER PUSH1 0x4 SLOAD DUP6 PUSH1 0x40 MLOAD PUSH1 0x20 ADD PUSH2 0x1680 SWAP6 SWAP5 SWAP4 SWAP3 SWAP2 SWAP1 PUSH2 0x227D JUMP JUMPDEST PUSH1 0x40 MLOAD PUSH1 0x20 DUP2 DUP4 SUB SUB DUP2 MSTORE SWAP1 PUSH1 0x40 MSTORE DUP1 MLOAD SWAP1 PUSH1 0x20 ADD KECCAK256 SWAP1 POP PUSH1 0x1 SWAP3 POP PUSH1 0x0 JUMPDEST PUSH1 0xF DUP2 LT ISZERO PUSH2 0x174F JUMPI PUSH1 0x0 DUP7 MLOAD DUP4 PUSH1 0x20 DUP5 PUSH2 0x16BA SWAP2 SWAP1 PUSH2 0x230B JUMP JUMPDEST PUSH1 0x20 DUP2 LT PUSH2 0x16CB JUMPI PUSH2 0x16CA PUSH2 0x233C JUMP JUMPDEST JUMPDEST BYTE PUSH1 0xF8 SHL PUSH1 0xF8 SHR PUSH1 0xFF AND PUSH2 0x16DF SWAP2 SWAP1 PUSH2 0x230B JUMP JUMPDEST SWAP1 POP DUP7 DUP2 DUP2 MLOAD DUP2 LT PUSH2 0x16F4 JUMPI PUSH2 0x16F3 PUSH2 0x233C JUMP JUMPDEST JUMPDEST PUSH1 0x20 ADD ADD MLOAD PUSH1 0xF8 SHR PUSH1 0xF8 SHL DUP7 DUP4 DUP2 MLOAD DUP2 LT PUSH2 0x1712 JUMPI PUSH2 0x1711 PUSH2 0x233C JUMP JUMPDEST JUMPDEST PUSH1 0x20 ADD ADD SWAP1 PUSH31 0xFFFFFFFFFFFFFFFFFFFFFFFFFFFFFFFFFFFFFFFFFFFFFFFFFFFFFFFFFFFFFF NOT AND SWAP1 DUP2 PUSH1 0x0 BYTE SWAP1 MSTORE8 POP POP DUP1 DUP1 PUSH1 0x1 ADD SWAP2 POP POP PUSH2 0x169F JUMP JUMPDEST POP PUSH1 0x0 DUP5 SWAP1 POP PUSH1 0x0 JUMPDEST PUSH1 0x6 PUSH1 0x0 CALLER PUSH20 0xFFFFFFFFFFFFFFFFFFFFFFFFFFFFFFFFFFFFFFFF AND PUSH20 0xFFFFFFFFFFFFFFFFFFFFFFFFFFFFFFFFFFFFFFFF AND DUP2 MSTORE PUSH1 0x20 ADD SWAP1 DUP2 MSTORE PUSH1 0x20 ADD PUSH1 0x0 KECCAK256 DUP1 SLOAD SWAP1 POP DUP2 LT ISZERO PUSH2 0x1865 JUMPI DUP2 PUSH1 0x40 MLOAD PUSH1 0x20 ADD PUSH2 0x17B3 SWAP2 SWAP1 PUSH2 0x219A JUMP JUMPDEST PUSH1 0x40 MLOAD PUSH1 0x20 DUP2 DUP4 SUB SUB DUP2 MSTORE SWAP1 PUSH1 0x40 MSTORE DUP1 MLOAD SWAP1 PUSH1 0x20 ADD KECCAK256 PUSH1 0x6 PUSH1 0x0 CALLER PUSH20 0xFFFFFFFFFFFFFFFFFFFFFFFFFFFFFFFFFFFFFFFF AND PUSH20 0xFFFFFFFFFFFFFFFFFFFFFFFFFFFFFFFFFFFFFFFF AND DUP2 MSTORE PUSH1 0x20 ADD SWAP1 DUP2 MSTORE PUSH1 0x20 ADD PUSH1 0x0 KECCAK256 DUP3 DUP2 SLOAD DUP2 LT PUSH2 0x181A JUMPI PUSH2 0x1819 PUSH2 0x233C JUMP JUMPDEST JUMPDEST SWAP1 PUSH1 0x0 MSTORE PUSH1 0x20 PUSH1 0x0 KECCAK256 ADD PUSH1 0x40 MLOAD PUSH1 0x20 ADD PUSH2 0x1834 SWAP2 SWAP1 PUSH2 0x23EE JUMP JUMPDEST PUSH1 0x40 MLOAD PUSH1 0x20 DUP2 DUP4 SUB SUB DUP2 MSTORE SWAP1 PUSH1 0x40 MSTORE DUP1 MLOAD SWAP1 PUSH1 0x20 ADD KECCAK256 SUB PUSH2 0x1858 JUMPI PUSH1 0x0 SWAP5 POP PUSH2 0x1865 JUMP JUMPDEST DUP1 DUP1 PUSH1 0x1 ADD SWAP2 POP POP PUSH2 0x1758 JUMP JUMPDEST POP DUP3 DUP1 PUSH2 0x1871 SWAP1 PUSH2 0x2405 JUMP JUMPDEST SWAP4 POP POP POP POP DUP2 ISZERO DUP1 ISZERO PUSH2 0x1884 JUMPI POP PUSH1 0xA DUP2 LT JUMPDEST PUSH2 0x1663 JUMPI PUSH2 0x189C PUSH8 0x35B7E121DF0342D PUSH1 0xC0 SHL PUSH2 0x1522 JUMP JUMPDEST PUSH2 0x18B0 PUSH8 0xA49BDDC6D56B637A PUSH1 0xC0 SHL PUSH2 0x1522 JUMP JUMPDEST DUP2 PUSH2 0x192C JUMPI PUSH2 0x18C9 PUSH8 0x757AE34C61AF6005 PUSH1 0xC0 SHL PUSH2 0x1522 JUMP JUMPDEST PUSH2 0x18DD PUSH8 0x3DDF480BF3A52680 PUSH1 0xC0 SHL PUSH2 0x1522 JUMP JUMPDEST PUSH2 0x18F1 PUSH8 0x7063D424D4CD5C0C PUSH1 0xC0 SHL PUSH2 0x1522 JUMP JUMPDEST PUSH1 0x40 MLOAD PUSH32 0x8C379A000000000000000000000000000000000000000000000000000000000 DUP2 MSTORE PUSH1 0x4 ADD PUSH2 0x1923 SWAP1 PUSH2 0x24D0 JUMP JUMPDEST PUSH1 0x40 MLOAD DUP1 SWAP2 SUB SWAP1 REVERT JUMPDEST PUSH2 0x1940 PUSH8 0xF60BFD51A90AB04F PUSH1 0xC0 SHL PUSH2 0x1522 JUMP JUMPDEST PUSH2 0x1954 PUSH8 0xD3BE0A0562A5EFB1 PUSH1 0xC0 SHL PUSH2 0x1522 JUMP JUMPDEST PUSH1 0x4 PUSH1 0x0 DUP2 SLOAD DUP1 SWAP3 SWAP2 SWAP1 PUSH2 0x1967 SWAP1 PUSH2 0x2405 JUMP JUMPDEST SWAP2 SWAP1 POP SSTORE POP PUSH2 0x1980 PUSH8 0xC37B8038C1E6D705 PUSH1 0xC0 SHL PUSH2 0x1522 JUMP JUMPDEST PUSH2 0x1994 PUSH8 0xEBFC6C0F010A8EA4 PUSH1 0xC0 SHL PUSH2 0x1522 JUMP JUMPDEST DUP3 SWAP5 POP POP POP POP POP SWAP1 JUMP JUMPDEST PUSH2 0x19A6 PUSH2 0x1AE9 JUMP JUMPDEST PUSH20 0xFFFFFFFFFFFFFFFFFFFFFFFFFFFFFFFFFFFFFFFF AND PUSH2 0x19C4 PUSH2 0x10D7 JUMP JUMPDEST PUSH20 0xFFFFFFFFFFFFFFFFFFFFFFFFFFFFFFFFFFFFFFFF AND EQ PUSH2 0x1A23 JUMPI PUSH2 0x19E7 PUSH2 0x1AE9 JUMP JUMPDEST PUSH1 0x40 MLOAD PUSH32 0x118CDAA700000000000000000000000000000000000000000000000000000000 DUP2 MSTORE PUSH1 0x4 ADD PUSH2 0x1A1A SWAP2 SWAP1 PUSH2 0x1B32 JUMP JUMPDEST PUSH1 0x40 MLOAD DUP1 SWAP2 SUB SWAP1 REVERT JUMPDEST JUMP JUMPDEST PUSH1 0x0 DUP1 PUSH1 0x0 SWAP1 SLOAD SWAP1 PUSH2 0x100 EXP SWAP1 DIV PUSH20 0xFFFFFFFFFFFFFFFFFFFFFFFFFFFFFFFFFFFFFFFF AND SWAP1 POP DUP2 PUSH1 0x0 DUP1 PUSH2 0x100 EXP DUP2 SLOAD DUP2 PUSH20 0xFFFFFFFFFFFFFFFFFFFFFFFFFFFFFFFFFFFFFFFF MUL NOT AND SWAP1 DUP4 PUSH20 0xFFFFFFFFFFFFFFFFFFFFFFFFFFFFFFFFFFFFFFFF AND MUL OR SWAP1 SSTORE POP DUP2 PUSH20 0xFFFFFFFFFFFFFFFFFFFFFFFFFFFFFFFFFFFFFFFF AND DUP2 PUSH20 0xFFFFFFFFFFFFFFFFFFFFFFFFFFFFFFFFFFFFFFFF AND PUSH32 0x8BE0079C531659141344CD1FD0A4F28419497F9722A3DAAFE3B4186F6B6457E0 PUSH1 0x40 MLOAD PUSH1 0x40 MLOAD DUP1 SWAP2 SUB SWAP1 LOG3 POP POP JUMP JUMPDEST PUSH1 0x0 CALLER SWAP1 POP SWAP1 JUMP JUMPDEST PUSH1 0x0 PUSH20 0xFFFFFFFFFFFFFFFFFFFFFFFFFFFFFFFFFFFFFFFF DUP3 AND SWAP1 POP SWAP2 SWAP1 POP JUMP JUMPDEST PUSH1 0x0 PUSH2 0x1B1C DUP3 PUSH2 0x1AF1 JUMP JUMPDEST SWAP1 POP SWAP2 SWAP1 POP JUMP JUMPDEST PUSH2 0x1B2C DUP2 PUSH2 0x1B11 JUMP JUMPDEST DUP3 MSTORE POP POP JUMP JUMPDEST PUSH1 0x0 PUSH1 0x20 DUP3 ADD SWAP1 POP PUSH2 0x1B47 PUSH1 0x0 DUP4 ADD DUP5 PUSH2 0x1B23 JUMP JUMPDEST SWAP3 SWAP2 POP POP JUMP JUMPDEST PUSH1 0x0 DUP1 REVERT JUMPDEST PUSH2 0x1B5B DUP2 PUSH2 0x1B11 JUMP JUMPDEST DUP2 EQ PUSH2 0x1B66 JUMPI PUSH1 0x0 DUP1 REVERT JUMPDEST POP JUMP JUMPDEST PUSH1 0x0 DUP2 CALLDATALOAD SWAP1 POP PUSH2 0x1B78 DUP2 PUSH2 0x1B52 JUMP JUMPDEST SWAP3 SWAP2 POP POP JUMP JUMPDEST PUSH1 0x0 PUSH1 0x20 DUP3 DUP5 SUB SLT ISZERO PUSH2 0x1B94 JUMPI PUSH2 0x1B93 PUSH2 0x1B4D JUMP JUMPDEST JUMPDEST PUSH1 0x0 PUSH2 0x1BA2 DUP5 DUP3 DUP6 ADD PUSH2 0x1B69 JUMP JUMPDEST SWAP2 POP POP SWAP3 SWAP2 POP POP JUMP JUMPDEST PUSH1 0x0 DUP2 SWAP1 POP SWAP2 SWAP1 POP JUMP JUMPDEST PUSH2 0x1BBE DUP2 PUSH2 0x1BAB JUMP JUMPDEST DUP3 MSTORE POP POP JUMP JUMPDEST PUSH1 0x0 PUSH1 0x20 DUP3 ADD SWAP1 POP PUSH2 0x1BD9 PUSH1 0x0 DUP4 ADD DUP5 PUSH2 0x1BB5 JUMP JUMPDEST SWAP3 SWAP2 POP POP JUMP JUMPDEST PUSH1 0x0 DUP2 MLOAD SWAP1 POP SWAP2 SWAP1 POP JUMP JUMPDEST PUSH1 0x0 DUP3 DUP3 MSTORE PUSH1 0x20 DUP3 ADD SWAP1 POP SWAP3 SWAP2 POP POP JUMP JUMPDEST PUSH1 0x0 DUP2 SWAP1 POP PUSH1 0x20 DUP3 ADD SWAP1 POP SWAP2 SWAP1 POP JUMP JUMPDEST PUSH1 0x0 DUP2 MLOAD SWAP1 POP SWAP2 SWAP1 POP JUMP JUMPDEST PUSH1 0x0 DUP3 DUP3 MSTORE PUSH1 0x20 DUP3 ADD SWAP1 POP SWAP3 SWAP2 POP POP JUMP JUMPDEST PUSH1 0x0 JUMPDEST DUP4 DUP2 LT ISZERO PUSH2 0x1C45 JUMPI DUP1 DUP3 ADD MLOAD DUP2 DUP5 ADD MSTORE PUSH1 0x20 DUP2 ADD SWAP1 POP PUSH2 0x1C2A JUMP JUMPDEST PUSH1 0x0 DUP5 DUP5 ADD MSTORE POP POP POP POP JUMP JUMPDEST PUSH1 0x0 PUSH1 0x1F NOT PUSH1 0x1F DUP4 ADD AND SWAP1 POP SWAP2 SWAP1 POP JUMP JUMPDEST PUSH1 0x0 PUSH2 0x1C6D DUP3 PUSH2 0x1C0B JUMP JUMPDEST PUSH2 0x1C77 DUP2 DUP6 PUSH2 0x1C16 JUMP JUMPDEST SWAP4 POP PUSH2 0x1C87 DUP2 DUP6 PUSH1 0x20 DUP7 ADD PUSH2 0x1C27 JUMP JUMPDEST PUSH2 0x1C90 DUP2 PUSH2 0x1C51 JUMP JUMPDEST DUP5 ADD SWAP2 POP POP SWAP3 SWAP2 POP POP JUMP JUMPDEST PUSH1 0x0 PUSH2 0x1CA7 DUP4 DUP4 PUSH2 0x1C62 JUMP JUMPDEST SWAP1 POP SWAP3 SWAP2 POP POP JUMP JUMPDEST PUSH1 0x0 PUSH1 0x20 DUP3 ADD SWAP1 POP SWAP2 SWAP1 POP JUMP JUMPDEST PUSH1 0x0 PUSH2 0x1CC7 DUP3 PUSH2 0x1BDF JUMP JUMPDEST PUSH2 0x1CD1 DUP2 DUP6 PUSH2 0x1BEA JUMP JUMPDEST SWAP4 POP DUP4 PUSH1 0x20 DUP3 MUL DUP6 ADD PUSH2 0x1CE3 DUP6 PUSH2 0x1BFB JUMP JUMPDEST DUP1 PUSH1 0x0 JUMPDEST DUP6 DUP2 LT ISZERO PUSH2 0x1D1F JUMPI DUP5 DUP5 SUB DUP10 MSTORE DUP2 MLOAD PUSH2 0x1D00 DUP6 DUP3 PUSH2 0x1C9B JUMP JUMPDEST SWAP5 POP PUSH2 0x1D0B DUP4 PUSH2 0x1CAF JUMP JUMPDEST SWAP3 POP PUSH1 0x20 DUP11 ADD SWAP10 POP POP PUSH1 0x1 DUP2 ADD SWAP1 POP PUSH2 0x1CE7 JUMP JUMPDEST POP DUP3 SWAP8 POP DUP8 SWAP6 POP POP POP POP POP POP SWAP3 SWAP2 POP POP JUMP JUMPDEST PUSH1 0x0 PUSH1 0x20 DUP3 ADD SWAP1 POP DUP2 DUP2 SUB PUSH1 0x0 DUP4 ADD MSTORE PUSH2 0x1D4B DUP2 DUP5 PUSH2 0x1CBC JUMP JUMPDEST SWAP1 POP SWAP3 SWAP2 POP POP JUMP JUMPDEST PUSH1 0x0 DUP2 ISZERO ISZERO SWAP1 POP SWAP2 SWAP1 POP JUMP JUMPDEST PUSH2 0x1D68 DUP2 PUSH2 0x1D53 JUMP JUMPDEST DUP3 MSTORE POP POP JUMP JUMPDEST PUSH1 0x0 PUSH1 0x20 DUP3 ADD SWAP1 POP PUSH2 0x1D83 PUSH1 0x0 DUP4 ADD DUP5 PUSH2 0x1D5F JUMP JUMPDEST SWAP3 SWAP2 POP POP JUMP JUMPDEST PUSH2 0x1D92 DUP2 PUSH2 0x1BAB JUMP JUMPDEST DUP2 EQ PUSH2 0x1D9D JUMPI PUSH1 0x0 DUP1 REVERT JUMPDEST POP JUMP JUMPDEST PUSH1 0x0 DUP2 CALLDATALOAD SWAP1 POP PUSH2 0x1DAF DUP2 PUSH2 0x1D89 JUMP JUMPDEST SWAP3 SWAP2 POP POP JUMP JUMPDEST PUSH1 0x0 PUSH1 0x20 DUP3 DUP5 SUB SLT ISZERO PUSH2 0x1DCB JUMPI PUSH2 0x1DCA PUSH2 0x1B4D JUMP JUMPDEST JUMPDEST PUSH1 0x0 PUSH2 0x1DD9 DUP5 DUP3 DUP6 ADD PUSH2 0x1DA0 JUMP JUMPDEST SWAP2 POP POP SWAP3 SWAP2 POP POP JUMP JUMPDEST PUSH1 0x0 DUP2 SWAP1 POP SWAP3 SWAP2 POP POP JUMP JUMPDEST POP JUMP JUMPDEST PUSH1 0x0 PUSH2 0x1DFD PUSH1 0x0 DUP4 PUSH2 0x1DE2 JUMP JUMPDEST SWAP2 POP PUSH2 0x1E08 DUP3 PUSH2 0x1DED JUMP JUMPDEST PUSH1 0x0 DUP3 ADD SWAP1 POP SWAP2 SWAP1 POP JUMP JUMPDEST PUSH1 0x0 PUSH2 0x1E1E DUP3 PUSH2 0x1DF0 JUMP JUMPDEST SWAP2 POP DUP2 SWAP1 POP SWAP2 SWAP1 POP JUMP JUMPDEST PUSH1 0x0 PUSH1 0x40 DUP3 ADD SWAP1 POP PUSH2 0x1E3D PUSH1 0x0 DUP4 ADD DUP6 PUSH2 0x1B23 JUMP JUMPDEST PUSH2 0x1E4A PUSH1 0x20 DUP4 ADD DUP5 PUSH2 0x1B23 JUMP JUMPDEST SWAP4 SWAP3 POP POP POP JUMP JUMPDEST PUSH32 0x4E487B7100000000000000000000000000000000000000000000000000000000 PUSH1 0x0 MSTORE PUSH1 0x41 PUSH1 0x4 MSTORE PUSH1 0x24 PUSH1 0x0 REVERT JUMPDEST PUSH32 0x4E487B7100000000000000000000000000000000000000000000000000000000 PUSH1 0x0 MSTORE PUSH1 0x22 PUSH1 0x4 MSTORE PUSH1 0x24 PUSH1 0x0 REVERT JUMPDEST PUSH1 0x0 PUSH1 0x2 DUP3 DIV SWAP1 POP PUSH1 0x1 DUP3 AND DUP1 PUSH2 0x1EC7 JUMPI PUSH1 0x7F DUP3 AND SWAP2 POP JUMPDEST PUSH1 0x20 DUP3 LT DUP2 SUB PUSH2 0x1EDA JUMPI PUSH2 0x1ED9 PUSH2 0x1E80 JUMP JUMPDEST JUMPDEST POP SWAP2 SWAP1 POP JUMP JUMPDEST PUSH1 0x0 DUP2 SWAP1 POP DUP2 PUSH1 0x0 MSTORE PUSH1 0x20 PUSH1 0x0 KECCAK256 SWAP1 POP SWAP2 SWAP1 POP JUMP JUMPDEST PUSH1 0x0 PUSH1 0x20 PUSH1 0x1F DUP4 ADD DIV SWAP1 POP SWAP2 SWAP1 POP JUMP JUMPDEST PUSH1 0x0 DUP3 DUP3 SHL SWAP1 POP SWAP3 SWAP2 POP POP JUMP JUMPDEST PUSH1 0x0 PUSH1 0x8 DUP4 MUL PUSH2 0x1F42 PUSH32 0xFFFFFFFFFFFFFFFFFFFFFFFFFFFFFFFFFFFFFFFFFFFFFFFFFFFFFFFFFFFFFFFF DUP3 PUSH2 0x1F05 JUMP JUMPDEST PUSH2 0x1F4C DUP7 DUP4 PUSH2 0x1F05 JUMP JUMPDEST SWAP6 POP DUP1 NOT DUP5 AND SWAP4 POP DUP1 DUP7 AND DUP5 OR SWAP3 POP POP POP SWAP4 SWAP3 POP POP POP JUMP JUMPDEST PUSH1 0x0 DUP2 SWAP1 POP SWAP2 SWAP1 POP JUMP JUMPDEST PUSH1 0x0 PUSH2 0x1F89 PUSH2 0x1F84 PUSH2 0x1F7F DUP5 PUSH2 0x1BAB JUMP JUMPDEST PUSH2 0x1F64 JUMP JUMPDEST PUSH2 0x1BAB JUMP JUMPDEST SWAP1 POP SWAP2 SWAP1 POP JUMP JUMPDEST PUSH1 0x0 DUP2 SWAP1 POP SWAP2 SWAP1 POP JUMP JUMPDEST PUSH2 0x1FA3 DUP4 PUSH2 0x1F6E JUMP JUMPDEST PUSH2 0x1FB7 PUSH2 0x1FAF DUP3 PUSH2 0x1F90 JUMP JUMPDEST DUP5 DUP5 SLOAD PUSH2 0x1F12 JUMP JUMPDEST DUP3 SSTORE POP POP POP POP JUMP JUMPDEST PUSH1 0x0 SWAP1 JUMP JUMPDEST PUSH2 0x1FCC PUSH2 0x1FBF JUMP JUMPDEST PUSH2 0x1FD7 DUP2 DUP5 DUP5 PUSH2 0x1F9A JUMP JUMPDEST POP POP POP JUMP JUMPDEST JUMPDEST DUP2 DUP2 LT ISZERO PUSH2 0x1FFB JUMPI PUSH2 0x1FF0 PUSH1 0x0 DUP3 PUSH2 0x1FC4 JUMP JUMPDEST PUSH1 0x1 DUP2 ADD SWAP1 POP PUSH2 0x1FDD JUMP JUMPDEST POP POP JUMP JUMPDEST PUSH1 0x1F DUP3 GT ISZERO PUSH2 0x2040 JUMPI PUSH2 0x2011 DUP2 PUSH2 0x1EE0 JUMP JUMPDEST PUSH2 0x201A DUP5 PUSH2 0x1EF5 JUMP JUMPDEST DUP2 ADD PUSH1 0x20 DUP6 LT ISZERO PUSH2 0x2029 JUMPI DUP2 SWAP1 POP JUMPDEST PUSH2 0x203D PUSH2 0x2035 DUP6 PUSH2 0x1EF5 JUMP JUMPDEST DUP4 ADD DUP3 PUSH2 0x1FDC JUMP JUMPDEST POP POP JUMPDEST POP POP POP JUMP JUMPDEST PUSH1 0x0 DUP3 DUP3 SHR SWAP1 POP SWAP3 SWAP2 POP POP JUMP JUMPDEST PUSH1 0x0 PUSH2 0x2063 PUSH1 0x0 NOT DUP5 PUSH1 0x8 MUL PUSH2 0x2045 JUMP JUMPDEST NOT DUP1 DUP4 AND SWAP2 POP POP SWAP3 SWAP2 POP POP JUMP JUMPDEST PUSH1 0x0 PUSH2 0x207C DUP4 DUP4 PUSH2 0x2052 JUMP JUMPDEST SWAP2 POP DUP3 PUSH1 0x2 MUL DUP3 OR SWAP1 POP SWAP3 SWAP2 POP POP JUMP JUMPDEST PUSH2 0x2095 DUP3 PUSH2 0x1C0B JUMP JUMPDEST PUSH8 0xFFFFFFFFFFFFFFFF DUP2 GT ISZERO PUSH2 0x20AE JUMPI PUSH2 0x20AD PUSH2 0x1E51 JUMP JUMPDEST JUMPDEST PUSH2 0x20B8 DUP3 SLOAD PUSH2 0x1EAF JUMP JUMPDEST PUSH2 0x20C3 DUP3 DUP3 DUP6 PUSH2 0x1FFF JUMP JUMPDEST PUSH1 0x0 PUSH1 0x20 SWAP1 POP PUSH1 0x1F DUP4 GT PUSH1 0x1 DUP2 EQ PUSH2 0x20F6 JUMPI PUSH1 0x0 DUP5 ISZERO PUSH2 0x20E4 JUMPI DUP3 DUP8 ADD MLOAD SWAP1 POP JUMPDEST PUSH2 0x20EE DUP6 DUP3 PUSH2 0x2070 JUMP JUMPDEST DUP7 SSTORE POP PUSH2 0x2156 JUMP JUMPDEST PUSH1 0x1F NOT DUP5 AND PUSH2 0x2104 DUP7 PUSH2 0x1EE0 JUMP JUMPDEST PUSH1 0x0 JUMPDEST DUP3 DUP2 LT ISZERO PUSH2 0x212C JUMPI DUP5 DUP10 ADD MLOAD DUP3 SSTORE PUSH1 0x1 DUP3 ADD SWAP2 POP PUSH1 0x20 DUP6 ADD SWAP5 POP PUSH1 0x20 DUP2 ADD SWAP1 POP PUSH2 0x2107 JUMP JUMPDEST DUP7 DUP4 LT ISZERO PUSH2 0x2149 JUMPI DUP5 DUP10 ADD MLOAD PUSH2 0x2145 PUSH1 0x1F DUP10 AND DUP3 PUSH2 0x2052 JUMP JUMPDEST DUP4 SSTORE POP JUMPDEST PUSH1 0x1 PUSH1 0x2 DUP9 MUL ADD DUP9 SSTORE POP POP POP JUMPDEST POP POP POP POP POP POP JUMP JUMPDEST PUSH1 0x0 DUP2 SWAP1 POP SWAP3 SWAP2 POP POP JUMP JUMPDEST PUSH1 0x0 PUSH2 0x2174 DUP3 PUSH2 0x1C0B JUMP JUMPDEST PUSH2 0x217E DUP2 DUP6 PUSH2 0x215E JUMP JUMPDEST SWAP4 POP PUSH2 0x218E DUP2 DUP6 PUSH1 0x20 DUP7 ADD PUSH2 0x1C27 JUMP JUMPDEST DUP1 DUP5 ADD SWAP2 POP POP SWAP3 SWAP2 POP POP JUMP JUMPDEST PUSH1 0x0 PUSH2 0x21A6 DUP3 DUP5 PUSH2 0x2169 JUMP JUMPDEST SWAP2 POP DUP2 SWAP1 POP SWAP3 SWAP2 POP POP JUMP JUMPDEST PUSH32 0x4E487B7100000000000000000000000000000000000000000000000000000000 PUSH1 0x0 MSTORE PUSH1 0x11 PUSH1 0x4 MSTORE PUSH1 0x24 PUSH1 0x0 REVERT JUMPDEST PUSH1 0x0 PUSH2 0x21EB DUP3 PUSH2 0x1BAB JUMP JUMPDEST SWAP2 POP PUSH2 0x21F6 DUP4 PUSH2 0x1BAB JUMP JUMPDEST SWAP3 POP DUP3 DUP3 ADD SWAP1 POP DUP1 DUP3 GT ISZERO PUSH2 0x220E JUMPI PUSH2 0x220D PUSH2 0x21B1 JUMP JUMPDEST JUMPDEST SWAP3 SWAP2 POP POP JUMP JUMPDEST PUSH1 0x0 DUP2 SWAP1 POP SWAP2 SWAP1 POP JUMP JUMPDEST PUSH2 0x222F PUSH2 0x222A DUP3 PUSH2 0x1BAB JUMP JUMPDEST PUSH2 0x2214 JUMP JUMPDEST DUP3 MSTORE POP POP JUMP JUMPDEST PUSH1 0x0 DUP2 PUSH1 0x60 SHL SWAP1 POP SWAP2 SWAP1 POP JUMP JUMPDEST PUSH1 0x0 PUSH2 0x224D DUP3 PUSH2 0x2235 JUMP JUMPDEST SWAP1 POP SWAP2 SWAP1 POP JUMP JUMPDEST PUSH1 0x0 PUSH2 0x225F DUP3 PUSH2 0x2242 JUMP JUMPDEST SWAP1 POP SWAP2 SWAP1 POP JUMP JUMPDEST PUSH2 0x2277 PUSH2 0x2272 DUP3 PUSH2 0x1B11 JUMP JUMPDEST PUSH2 0x2254 JUMP JUMPDEST DUP3 MSTORE POP POP JUMP JUMPDEST PUSH1 0x0 PUSH2 0x2289 DUP3 DUP9 PUSH2 0x221E JUMP JUMPDEST PUSH1 0x20 DUP3 ADD SWAP2 POP PUSH2 0x2299 DUP3 DUP8 PUSH2 0x221E JUMP JUMPDEST PUSH1 0x20 DUP3 ADD SWAP2 POP PUSH2 0x22A9 DUP3 DUP7 PUSH2 0x2266 JUMP JUMPDEST PUSH1 0x14 DUP3 ADD SWAP2 POP PUSH2 0x22B9 DUP3 DUP6 PUSH2 0x221E JUMP JUMPDEST PUSH1 0x20 DUP3 ADD SWAP2 POP PUSH2 0x22C9 DUP3 DUP5 PUSH2 0x221E JUMP JUMPDEST PUSH1 0x20 DUP3 ADD SWAP2 POP DUP2 SWAP1 POP SWAP7 SWAP6 POP POP POP POP POP POP JUMP JUMPDEST PUSH32 0x4E487B7100000000000000000000000000000000000000000000000000000000 PUSH1 0x0 MSTORE PUSH1 0x12 PUSH1 0x4 MSTORE PUSH1 0x24 PUSH1 0x0 REVERT JUMPDEST PUSH1 0x0 PUSH2 0x2316 DUP3 PUSH2 0x1BAB JUMP JUMPDEST SWAP2 POP PUSH2 0x2321 DUP4 PUSH2 0x1BAB JUMP JUMPDEST SWAP3 POP DUP3 PUSH2 0x2331 JUMPI PUSH2 0x2330 PUSH2 0x22DC JUMP JUMPDEST JUMPDEST DUP3 DUP3 MOD SWAP1 POP SWAP3 SWAP2 POP POP JUMP JUMPDEST PUSH32 0x4E487B7100000000000000000000000000000000000000000000000000000000 PUSH1 0x0 MSTORE PUSH1 0x32 PUSH1 0x4 MSTORE PUSH1 0x24 PUSH1 0x0 REVERT JUMPDEST PUSH1 0x0 DUP2 SLOAD PUSH2 0x2378 DUP2 PUSH2 0x1EAF JUMP JUMPDEST PUSH2 0x2382 DUP2 DUP7 PUSH2 0x215E JUMP JUMPDEST SWAP5 POP PUSH1 0x1 DUP3 AND PUSH1 0x0 DUP2 EQ PUSH2 0x239D JUMPI PUSH1 0x1 DUP2 EQ PUSH2 0x23B2 JUMPI PUSH2 0x23E5 JUMP JUMPDEST PUSH1 0xFF NOT DUP4 AND DUP7 MSTORE DUP2 ISZERO ISZERO DUP3 MUL DUP7 ADD SWAP4 POP PUSH2 0x23E5 JUMP JUMPDEST PUSH2 0x23BB DUP6 PUSH2 0x1EE0 JUMP JUMPDEST PUSH1 0x0 JUMPDEST DUP4 DUP2 LT ISZERO PUSH2 0x23DD JUMPI DUP2 SLOAD DUP2 DUP10 ADD MSTORE PUSH1 0x1 DUP3 ADD SWAP2 POP PUSH1 0x20 DUP2 ADD SWAP1 POP PUSH2 0x23BE JUMP JUMPDEST DUP4 DUP9 ADD SWAP6 POP POP POP JUMPDEST POP POP POP SWAP3 SWAP2 POP POP JUMP JUMPDEST PUSH1 0x0 PUSH2 0x23FA DUP3 DUP5 PUSH2 0x236B JUMP JUMPDEST SWAP2 POP DUP2 SWAP1 POP SWAP3 SWAP2 POP POP JUMP JUMPDEST PUSH1 0x0 PUSH2 0x2410 DUP3 PUSH2 0x1BAB JUMP JUMPDEST SWAP2 POP PUSH32 0xFFFFFFFFFFFFFFFFFFFFFFFFFFFFFFFFFFFFFFFFFFFFFFFFFFFFFFFFFFFFFFFF DUP3 SUB PUSH2 0x2442 JUMPI PUSH2 0x2441 PUSH2 0x21B1 JUMP JUMPDEST JUMPDEST PUSH1 0x1 DUP3 ADD SWAP1 POP SWAP2 SWAP1 POP JUMP JUMPDEST PUSH1 0x0 DUP3 DUP3 MSTORE PUSH1 0x20 DUP3 ADD SWAP1 POP SWAP3 SWAP2 POP POP JUMP JUMPDEST PUSH32 0x4661696C656420746F2067656E6572617465206120756E697175652049442061 PUSH1 0x0 DUP3 ADD MSTORE PUSH32 0x66746572207365766572616C20617474656D7074732E00000000000000000000 PUSH1 0x20 DUP3 ADD MSTORE POP JUMP JUMPDEST PUSH1 0x0 PUSH2 0x24BA PUSH1 0x36 DUP4 PUSH2 0x244D JUMP JUMPDEST SWAP2 POP PUSH2 0x24C5 DUP3 PUSH2 0x245E JUMP JUMPDEST PUSH1 0x40 DUP3 ADD SWAP1 POP SWAP2 SWAP1 POP JUMP JUMPDEST PUSH1 0x0 PUSH1 0x20 DUP3 ADD SWAP1 POP DUP2 DUP2 SUB PUSH1 0x0 DUP4 ADD MSTORE PUSH2 0x24E9 DUP2 PUSH2 0x24AD JUMP JUMPDEST SWAP1 POP SWAP2 SWAP1 POP JUMP INVALID COINBASE TIMESTAMP NUMBER PREVRANDAO GASLIMIT CHAINID SELFBALANCE BASEFEE BLOBHASH BLOBBASEFEE 0x4B 0x4C 0x4D 0x4E 0x4F POP MLOAD MSTORE MSTORE8 SLOAD SSTORE JUMP JUMPI PC MSIZE GAS ADDRESS BALANCE ORIGIN CALLER CALLVALUE CALLDATALOAD CALLDATASIZE CALLDATACOPY CODESIZE CODECOPY LOG2 PUSH5 0x6970667358 0x22 SLT KECCAK256 0xDB 0xBA ISZERO 0xDB PUSH31 0xA2C3BD355E3037FF59CC520711F3341007DAF5A11AB655791194F64736F6C PUSH4 0x4300081A STOP CALLER "},"gasEstimates":{"creation":{"codeDepositCost":"1909200","executionCost":"infinite","totalCost":"infinite"},"external":{"IDLength()":"351","cancelTransaction(address)":"infinite","depositFunds()":"infinite","escrowAgent()":"2558","getBuyerToAmountDeposited(address)":"infinite","getCurrentPrice()":"infinite","getEscrowAddress()":"infinite","getSalesIds(address)":"infinite","getSellerAddress()":"infinite","isFunded()":"2610","nextID()":"2519","owner()":"2545","price()":"2496","releaseFunds(address)":"infinite","renounceOwnership()":"infinite","seller()":"2538","setPrice(uint256)":"infinite","transferOwnership(address)":"infinite"},"internal":{"c_bc17c98e(bytes8)":"11","c_falsebc17c98e(bytes8)":"infinite","c_truebc17c98e(bytes8)":"infinite","generateUniqueID()":"infinite"}},"methodIdentifiers":{"IDLength()":"b7f7fcb4","cancelTransaction(address)":"33de96c6","depositFunds()":"e2c41dbc","escrowAgent()":"e1f6c098","getBuyerToAmountDeposited(address)":"a6a4dc36","getCurrentPrice()":"eb91d37e","getEscrowAddress()":"122fd48a","getSalesIds(address)":"560a5ffc","getSellerAddress()":"84b09e86","isFunded()":"7c654303","nextID()":"1e96917d","owner()":"8da5cb5b","price()":"a035b1fe","releaseFunds(address)":"192e7a7b","renounceOwnership()":"715018a6","seller()":"08551a53","setPrice(uint256)":"91b7f5ed","transferOwnership(address)":"f2fde38b"}},"storageLayout":{"storage":[{"astId":8,"contract":"contracts/Escrow.sol:Escrow","label":"_owner","offset":0,"slot":"0","type":"t_address"},{"astId":309,"contract":"contracts/Escrow.sol:Escrow","label":"seller","offset":0,"slot":"1","type":"t_address"},{"astId":312,"contract":"contracts/Escrow.sol:Escrow","label":"price","offset":0,"slot":"2","type":"t_uint256"},{"astId":314,"contract":"contracts/Escrow.sol:Escrow","label":"escrowAgent","offset":0,"slot":"3","type":"t_address"},{"astId":317,"contract":"contracts/Escrow.sol:Escrow","label":"isFunded","offset":20,"slot":"3","type":"t_bool"},{"astId":322,"contract":"contracts/Escrow.sol:Escrow","label":"nextID","offset":0,"slot":"4","type":"t_uint256"},{"astId":356,"contract":"contracts/Escrow.sol:Escrow","label":"s_buyerToAmountDeposited","offset":0,"slot":"5","type":"t_mapping(t_address,t_uint256)"},{"astId":361,"contract":"contracts/Escrow.sol:Escrow","label":"s_salesIDs","offset":0,"slot":"6","type":"t_mapping(t_address,t_array(t_string_storage)dyn_storage)"}],"types":{"t_address":{"encoding":"inplace","label":"address","numberOfBytes":"20"},"t_array(t_string_storage)dyn_storage":{"base":"t_string_storage","encoding":"dynamic_array","label":"string[]","numberOfBytes":"32"},"t_bool":{"encoding":"inplace","label":"bool","numberOfBytes":"1"},"t_mapping(t_address,t_array(t_string_storage)dyn_storage)":{"encoding":"mapping","key":"t_address","label":"mapping(address => string[])","numberOfBytes":"32","value":"t_array(t_string_storage)dyn_storage"},"t_mapping(t_address,t_uint256)":{"encoding":"mapping","key":"t_address","label":"mapping(address => uint256)","numberOfBytes":"32","value":"t_uint256"},"t_string_storage":{"encoding":"bytes","label":"string","numberOfBytes":"32"},"t_uint256":{"encoding":"inplace","label":"uint256","numberOfBytes":"32"}}},"userdoc":{"kind":"user","methods":{},"version":1}}}}