{
  "_format": "hh-sol-artifact-1",
  "contractName": "Escrow",
  "sourceName": "contracts/Escrow.sol",
  "abi": [
    {
      "inputs": [
        {
          "internalType": "address",
          "name": "_seller",
          "type": "address"
        },
        {
          "internalType": "address",
          "name": "_escrowAgent",
          "type": "address"
        }
      ],
      "stateMutability": "nonpayable",
      "type": "constructor"
    },
    {
      "inputs": [
        {
          "internalType": "address",
          "name": "from_",
          "type": "address"
        },
        {
          "internalType": "address",
          "name": "to_",
          "type": "address"
        }
      ],
      "name": "Escrow__ERROR_WHILE_SENDING_ETH",
      "type": "error"
    },
    {
      "inputs": [
        {
          "internalType": "address",
          "name": "caller_",
          "type": "address"
        }
      ],
      "name": "Escrow__ESCROW_AGENT_ONLY",
      "type": "error"
    },
    {
      "inputs": [
        {
          "internalType": "address",
          "name": "seller_",
          "type": "address"
        },
        {
          "internalType": "address",
          "name": "escrowAgent_",
          "type": "address"
        }
      ],
      "name": "Escrow__INVALID_ADDRESS",
      "type": "error"
    },
    {
      "inputs": [],
      "name": "Escrow__INVALID_PAYMENT_AMOUNT",
      "type": "error"
    },
    {
      "inputs": [
        {
          "internalType": "uint256",
          "name": "price_",
          "type": "uint256"
        }
      ],
      "name": "Escrow__INVALID_PRICE_VALUE",
      "type": "error"
    },
    {
      "inputs": [],
      "name": "Escrow__NO_FUNDS_DEPOSITED",
      "type": "error"
    },
    {
      "inputs": [
        {
          "internalType": "address",
          "name": "owner",
          "type": "address"
        }
      ],
      "name": "OwnableInvalidOwner",
      "type": "error"
    },
    {
      "inputs": [
        {
          "internalType": "address",
          "name": "account",
          "type": "address"
        }
      ],
      "name": "OwnableUnauthorizedAccount",
      "type": "error"
    },
    {
      "anonymous": false,
      "inputs": [
        {
          "indexed": true,
          "internalType": "address",
          "name": "buyer_",
          "type": "address"
        },
        {
          "indexed": false,
          "internalType": "uint256",
          "name": "amount_",
          "type": "uint256"
        }
      ],
      "name": "FundsDeposited",
      "type": "event"
    },
    {
      "anonymous": false,
      "inputs": [
        {
          "indexed": true,
          "internalType": "address",
          "name": "buyer_",
          "type": "address"
        },
        {
          "indexed": true,
          "internalType": "address",
          "name": "seller_",
          "type": "address"
        },
        {
          "indexed": false,
          "internalType": "uint256",
          "name": "amount_",
          "type": "uint256"
        }
      ],
      "name": "FundsReleased",
      "type": "event"
    },
    {
      "anonymous": false,
      "inputs": [
        {
          "indexed": true,
          "internalType": "address",
          "name": "buyer_",
          "type": "address"
        },
        {
          "indexed": true,
          "internalType": "address",
          "name": "seller_",
          "type": "address"
        },
        {
          "indexed": false,
          "internalType": "uint256",
          "name": "funds_",
          "type": "uint256"
        },
        {
          "indexed": true,
          "internalType": "string",
          "name": "salesId_",
          "type": "string"
        }
      ],
      "name": "NewSaleMade",
      "type": "event"
    },
    {
      "anonymous": false,
      "inputs": [
        {
          "indexed": true,
          "internalType": "address",
          "name": "previousOwner",
          "type": "address"
        },
        {
          "indexed": true,
          "internalType": "address",
          "name": "newOwner",
          "type": "address"
        }
      ],
      "name": "OwnershipTransferred",
      "type": "event"
    },
    {
      "anonymous": false,
      "inputs": [
        {
          "indexed": true,
          "internalType": "address",
          "name": "buyer_",
          "type": "address"
        },
        {
          "indexed": false,
          "internalType": "uint256",
          "name": "amount_",
          "type": "uint256"
        }
      ],
      "name": "TransactionCancelled",
      "type": "event"
    },
    {
      "inputs": [],
      "name": "IDLength",
      "outputs": [
        {
          "internalType": "uint256",
          "name": "",
          "type": "uint256"
        }
      ],
      "stateMutability": "view",
      "type": "function"
    },
    {
      "inputs": [
        {
          "internalType": "address",
          "name": "_buyer",
          "type": "address"
        }
      ],
      "name": "cancelTransaction",
      "outputs": [],
      "stateMutability": "nonpayable",
      "type": "function"
    },
    {
      "inputs": [],
      "name": "depositFunds",
      "outputs": [],
      "stateMutability": "payable",
      "type": "function"
    },
    {
      "inputs": [],
      "name": "escrowAgent",
      "outputs": [
        {
          "internalType": "address",
          "name": "",
          "type": "address"
        }
      ],
      "stateMutability": "view",
      "type": "function"
    },
    {
      "inputs": [
        {
          "internalType": "address",
          "name": "_buyer",
          "type": "address"
        }
      ],
      "name": "getBuyerToAmountDeposited",
      "outputs": [
        {
          "internalType": "uint256",
          "name": "",
          "type": "uint256"
        }
      ],
      "stateMutability": "view",
      "type": "function"
    },
    {
      "inputs": [],
      "name": "getCurrentPrice",
      "outputs": [
        {
          "internalType": "uint256",
          "name": "",
          "type": "uint256"
        }
      ],
      "stateMutability": "view",
      "type": "function"
    },
    {
      "inputs": [],
      "name": "getEscrowAddress",
      "outputs": [
        {
          "internalType": "address",
          "name": "",
          "type": "address"
        }
      ],
      "stateMutability": "view",
      "type": "function"
    },
    {
      "inputs": [
        {
          "internalType": "address",
          "name": "_buyer",
          "type": "address"
        }
      ],
      "name": "getSalesIds",
      "outputs": [
        {
          "internalType": "string[]",
          "name": "",
          "type": "string[]"
        }
      ],
      "stateMutability": "view",
      "type": "function"
    },
    {
      "inputs": [],
      "name": "getSellerAddress",
      "outputs": [
        {
          "internalType": "address",
          "name": "",
          "type": "address"
        }
      ],
      "stateMutability": "view",
      "type": "function"
    },
    {
      "inputs": [],
      "name": "isFunded",
      "outputs": [
        {
          "internalType": "bool",
          "name": "",
          "type": "bool"
        }
      ],
      "stateMutability": "view",
      "type": "function"
    },
    {
      "inputs": [],
      "name": "nextID",
      "outputs": [
        {
          "internalType": "uint256",
          "name": "",
          "type": "uint256"
        }
      ],
      "stateMutability": "view",
      "type": "function"
    },
    {
      "inputs": [],
      "name": "owner",
      "outputs": [
        {
          "internalType": "address",
          "name": "",
          "type": "address"
        }
      ],
      "stateMutability": "view",
      "type": "function"
    },
    {
      "inputs": [],
      "name": "price",
      "outputs": [
        {
          "internalType": "uint256",
          "name": "",
          "type": "uint256"
        }
      ],
      "stateMutability": "view",
      "type": "function"
    },
    {
      "inputs": [
        {
          "internalType": "address",
          "name": "_buyer",
          "type": "address"
        }
      ],
      "name": "releaseFunds",
      "outputs": [],
      "stateMutability": "nonpayable",
      "type": "function"
    },
    {
      "inputs": [],
      "name": "renounceOwnership",
      "outputs": [],
      "stateMutability": "nonpayable",
      "type": "function"
    },
    {
      "inputs": [],
      "name": "seller",
      "outputs": [
        {
          "internalType": "address",
          "name": "",
          "type": "address"
        }
      ],
      "stateMutability": "view",
      "type": "function"
    },
    {
      "inputs": [
        {
          "internalType": "uint256",
          "name": "_price",
          "type": "uint256"
        }
      ],
      "name": "setPrice",
      "outputs": [],
      "stateMutability": "nonpayable",
      "type": "function"
    },
    {
      "inputs": [
        {
          "internalType": "address",
          "name": "newOwner",
          "type": "address"
        }
      ],
      "name": "transferOwnership",
      "outputs": [],
      "stateMutability": "nonpayable",
      "type": "function"
    }
  ],
  "bytecode": "0x60806040526611c37937e080006002556000600360146101000a81548160ff02191690831515021790555034801561003657600080fd5b50604051612a44380380612a4483398181016040528101906100589190610458565b33600073ffffffffffffffffffffffffffffffffffffffff168173ffffffffffffffffffffffffffffffffffffffff16036100cb5760006040517f1e4fbdf70000000000000000000000000000000000000000000000000000000081526004016100c291906104a7565b60405180910390fd5b6100da8161032360201b60201c565b506100f5676954f438198f723860c01b6103e760201b60201c565b61010f67115a6127e82ebc6360c01b6103e760201b60201c565b61012967e436a4b5916120a860c01b6103e760201b60201c565b600073ffffffffffffffffffffffffffffffffffffffff168273ffffffffffffffffffffffffffffffffffffffff1614801561017b575061017a675d1558fcab93db7260c01b6103ea60201b60201c565b5b806101d45750600073ffffffffffffffffffffffffffffffffffffffff168173ffffffffffffffffffffffffffffffffffffffff161480156101d357506101d267e65f4aea873edfa860c01b6103ea60201b60201c565b5b5b1561024c576101f367278ff4d9245c884560c01b6103e760201b60201c565b61020d6741e45132f942842360c01b6103e760201b60201c565b81816040517f4a27a3820000000000000000000000000000000000000000000000000000000081526004016102439291906104c2565b60405180910390fd5b61026667326bc1d3e7d005a460c01b6103e760201b60201c565b6102806754b9852778a8aff560c01b6103e760201b60201c565b81600160006101000a81548173ffffffffffffffffffffffffffffffffffffffff021916908373ffffffffffffffffffffffffffffffffffffffff1602179055506102db673956155700e9a3bf60c01b6103e760201b60201c565b80600360006101000a81548173ffffffffffffffffffffffffffffffffffffffff021916908373ffffffffffffffffffffffffffffffffffffffff16021790555050506104eb565b60008060009054906101000a900473ffffffffffffffffffffffffffffffffffffffff169050816000806101000a81548173ffffffffffffffffffffffffffffffffffffffff021916908373ffffffffffffffffffffffffffffffffffffffff1602179055508173ffffffffffffffffffffffffffffffffffffffff168173ffffffffffffffffffffffffffffffffffffffff167f8be0079c531659141344cd1fd0a4f28419497f9722a3daafe3b4186f6b6457e060405160405180910390a35050565b50565b600060019050919050565b600080fd5b600073ffffffffffffffffffffffffffffffffffffffff82169050919050565b6000610425826103fa565b9050919050565b6104358161041a565b811461044057600080fd5b50565b6000815190506104528161042c565b92915050565b6000806040838503121561046f5761046e6103f5565b5b600061047d85828601610443565b925050602061048e85828601610443565b9150509250929050565b6104a18161041a565b82525050565b60006020820190506104bc6000830184610498565b92915050565b60006040820190506104d76000830185610498565b6104e46020830184610498565b9392505050565b61254a806104fa6000396000f3fe6080604052600436106101095760003560e01c80638da5cb5b11610095578063b7f7fcb411610064578063b7f7fcb414610347578063e1f6c09814610372578063e2c41dbc1461039d578063eb91d37e146103a7578063f2fde38b146103d257610109565b80638da5cb5b1461028b57806391b7f5ed146102b6578063a035b1fe146102df578063a6a4dc361461030a57610109565b806333de96c6116100dc57806333de96c6146101b8578063560a5ffc146101e1578063715018a61461021e5780637c6543031461023557806384b09e861461026057610109565b806308551a531461010e578063122fd48a14610139578063192e7a7b146101645780631e96917d1461018d575b600080fd5b34801561011a57600080fd5b506101236103fb565b6040516101309190611b32565b60405180910390f35b34801561014557600080fd5b5061014e610421565b60405161015b9190611b32565b60405180910390f35b34801561017057600080fd5b5061018b60048036038101906101869190611b7e565b610487565b005b34801561019957600080fd5b506101a2610ab3565b6040516101af9190611bc4565b60405180910390f35b3480156101c457600080fd5b506101df60048036038101906101da9190611b7e565b610ab9565b005b3480156101ed57600080fd5b5061020860048036038101906102039190611b7e565b610ef6565b6040516102159190611d31565b60405180910390f35b34801561022a57600080fd5b5061023361104a565b005b34801561024157600080fd5b5061024a61105e565b6040516102579190611d6e565b60405180910390f35b34801561026c57600080fd5b50610275611071565b6040516102829190611b32565b60405180910390f35b34801561029757600080fd5b506102a06110d7565b6040516102ad9190611b32565b60405180910390f35b3480156102c257600080fd5b506102dd60048036038101906102d89190611db5565b611100565b005b3480156102eb57600080fd5b506102f461120b565b6040516103019190611bc4565b60405180910390f35b34801561031657600080fd5b50610331600480360381019061032c9190611b7e565b611211565b60405161033e9190611bc4565b60405180910390f35b34801561035357600080fd5b5061035c611296565b6040516103699190611bc4565b60405180910390f35b34801561037e57600080fd5b5061038761129b565b6040516103949190611b32565b60405180910390f35b6103a56112c1565b005b3480156103b357600080fd5b506103bc611456565b6040516103c99190611bc4565b60405180910390f35b3480156103de57600080fd5b506103f960048036038101906103f49190611b7e565b61149c565b005b600160009054906101000a900473ffffffffffffffffffffffffffffffffffffffff1681565b600061043767c0bcca71a76f409360c01b611522565b61044b67f73c7f171917d79a60c01b611522565b61045f677fc4eaadd7cff46360c01b611522565b600360009054906101000a900473ffffffffffffffffffffffffffffffffffffffff16905090565b61049b67aa2aeb1786522ee360c01b611522565b6104af672dd048f2752b4d5660c01b611522565b6104c36725f3c5104f584a9f60c01b611522565b6104d7672ae7f351ccabf66160c01b611522565b600360009054906101000a900473ffffffffffffffffffffffffffffffffffffffff1673ffffffffffffffffffffffffffffffffffffffff163373ffffffffffffffffffffffffffffffffffffffff161461059157610540674abf1d287a81b87760c01b611522565b61055467a830efde3a26778360c01b611522565b336040517f383fd0660000000000000000000000000000000000000000000000000000000081526004016105889190611b32565b60405180910390fd5b6105a5679d4e3fc921dc2ae160c01b611522565b6105b9679bbd5443267ba4eb60c01b611522565b6105cd670ec74b33d478574360c01b611522565b6105e1670d823941aef1ed7e60c01b611522565b6105f56732037215792bf2ac60c01b611522565b610609671481fd1623f269ae60c01b611522565b6000600560008373ffffffffffffffffffffffffffffffffffffffff1673ffffffffffffffffffffffffffffffffffffffff16815260200190815260200160002054905061066167a95e718276212e7a60c01b611522565b6106756703c57612e9d09b8e60c01b611522565b600081036106d757610691671a31bf5df2a7b0da60c01b611522565b6106a567072845e774d4165460c01b611522565b6040517fcc735fb500000000000000000000000000000000000000000000000000000000815260040160405180910390fd5b6106eb671e10f14b3b63793f60c01b611522565b6106ff670a5994dbd418f15e60c01b611522565b61071367efbe950fef23f5f560c01b611522565b6000600160009054906101000a900473ffffffffffffffffffffffffffffffffffffffff1673ffffffffffffffffffffffffffffffffffffffff168260405161075b90611e13565b60006040518083038185875af1925050503d8060008114610798576040519150601f19603f3d011682016040523d82523d6000602084013e61079d565b606091505b505090506107b56708b5907425b0a99060c01b611522565b6107c967c1df39c4ad4808d260c01b611522565b80610857576107e267f1609abc825f443660c01b611522565b6107f667e8466718864d561360c01b611522565b82600160009054906101000a900473ffffffffffffffffffffffffffffffffffffffff166040517f1c7faa3e00000000000000000000000000000000000000000000000000000000815260040161084e929190611e28565b60405180910390fd5b61086b67b967a6ea7e47b2f660c01b611522565b61087f67e45b9e41e426a12f60c01b611522565b6108936765a0315abdf80bf660c01b611522565b600061089d611525565b90506108b3677e7ec89e9e1c241b60c01b611522565b6108c767ad401398132eada260c01b611522565b600660008573ffffffffffffffffffffffffffffffffffffffff1673ffffffffffffffffffffffffffffffffffffffff16815260200190815260200160002081908060018154018082558091505060019003906000526020600020016000909190919091509081610938919061208c565b5061094d674c43d33bd52e2ff760c01b611522565b61096167e07e46d905bb7e2f60c01b611522565b600160009054906101000a900473ffffffffffffffffffffffffffffffffffffffff1673ffffffffffffffffffffffffffffffffffffffff168473ffffffffffffffffffffffffffffffffffffffff167feed10c470424824e4a4309075162f10b9989088b23fbed2349698cedd44493fb856040516109e09190611bc4565b60405180910390a36109fc67cde877797787b22c60c01b611522565b610a10678f53efa73b6e232060c01b611522565b80604051610a1e919061219a565b6040518091039020600160009054906101000a900473ffffffffffffffffffffffffffffffffffffffff1673ffffffffffffffffffffffffffffffffffffffff168573ffffffffffffffffffffffffffffffffffffffff167f1c3842c102b04c9bfbbfb12e50a97c92551d25fd980b8897a54bb0057271697986604051610aa59190611bc4565b60405180910390a450505050565b60045481565b610acd6702f7cfeade3e10a360c01b611522565b610ae1672dd048f2752b4d5660c01b611522565b610af56725f3c5104f584a9f60c01b611522565b610b09672ae7f351ccabf66160c01b611522565b600360009054906101000a900473ffffffffffffffffffffffffffffffffffffffff1673ffffffffffffffffffffffffffffffffffffffff163373ffffffffffffffffffffffffffffffffffffffff1614610bc357610b72674abf1d287a81b87760c01b611522565b610b8667a830efde3a26778360c01b611522565b336040517f383fd066000000000000000000000000000000000000000000000000000000008152600401610bba9190611b32565b60405180910390fd5b610bd7679d4e3fc921dc2ae160c01b611522565b610beb679bbd5443267ba4eb60c01b611522565b610bff673d58124022f91a0760c01b611522565b610c1367d17b115fa4c1fcc560c01b611522565b610c2767161ec1672dd5752160c01b611522565b610c3b6745af796330b9a9ef60c01b611522565b6000600560008373ffffffffffffffffffffffffffffffffffffffff1673ffffffffffffffffffffffffffffffffffffffff168152602001908152602001600020549050610c9367416121f0e228053f60c01b611522565b610ca767486a41fba840fad760c01b611522565b60008103610d0957610cc367541119cfbc471bdd60c01b611522565b610cd76732318246dd7ce7b960c01b611522565b6040517fcc735fb500000000000000000000000000000000000000000000000000000000815260040160405180910390fd5b610d1d67f94cad0538ef175660c01b611522565b610d3167e5e8d6bdb0e0c0de60c01b611522565b610d4567d0ef66419f68421760c01b611522565b60008273ffffffffffffffffffffffffffffffffffffffff1682604051610d6b90611e13565b60006040518083038185875af1925050503d8060008114610da8576040519150601f19603f3d011682016040523d82523d6000602084013e610dad565b606091505b50509050610dc567d59d9b9c92a973bd60c01b611522565b610dd9676fffbfcfd16f0dc060c01b611522565b80610e6757610df2678ee0e8033c8ec5f860c01b611522565b610e066771ecc78ec8b0674c60c01b611522565b82600160009054906101000a900473ffffffffffffffffffffffffffffffffffffffff166040517f1c7faa3e000000000000000000000000000000000000000000000000000000008152600401610e5e929190611e28565b60405180910390fd5b610e7b67f39811116353b56b60c01b611522565b610e8f671ca14fbbad47fe0e60c01b611522565b610ea367dc37d90ec40aa97f60c01b611522565b8273ffffffffffffffffffffffffffffffffffffffff167fdceb09d55d6cf1424fafc2f14ad2b30c9e2cae7d1b5f28ef953c630ffef6659e83604051610ee99190611bc4565b60405180910390a2505050565b6060610f0c673f38c18eed3a111160c01b611522565b610f2067f0c04b3d123efe2160c01b611522565b610f3467cc2c4495587f97ef60c01b611522565b600660008373ffffffffffffffffffffffffffffffffffffffff1673ffffffffffffffffffffffffffffffffffffffff168152602001908152602001600020805480602002602001604051908101604052809291908181526020016000905b8282101561103f578382906000526020600020018054610fb290611eaf565b80601f0160208091040260200160405190810160405280929190818152602001828054610fde90611eaf565b801561102b5780601f106110005761010080835404028352916020019161102b565b820191906000526020600020905b81548152906001019060200180831161100e57829003601f168201915b505050505081526020019060010190610f93565b505050509050919050565b61105261199e565b61105c6000611a25565b565b600360149054906101000a900460ff1681565b6000611087679a7bd2a60584089460c01b611522565b61109b67089425fdddebd75660c01b611522565b6110af670ed48f8e225b905d60c01b611522565b600160009054906101000a900473ffffffffffffffffffffffffffffffffffffffff16905090565b60008060009054906101000a900473ffffffffffffffffffffffffffffffffffffffff16905090565b61111467912115c65a16f02460c01b611522565b61111c61199e565b611130674a86fda23b13aac360c01b611522565b61114467c3673a7f0afd045f60c01b611522565b61115867388d42606eb53f5860c01b611522565b61116c6749aa4b59dbfeeaa060c01b611522565b600081116111d957611188671c4084be253d3d7060c01b611522565b61119c67371565ac4b25bf3060c01b611522565b806040517f25f92d1d0000000000000000000000000000000000000000000000000000000081526004016111d09190611bc4565b60405180910390fd5b6111ed67eac2c94ae43fef8660c01b611522565b611201674e7f2f3a507a1f0260c01b611522565b8060028190555050565b60025481565b600061122767e1bb6bf1e74cd31760c01b611522565b61123b676b3c6d264b2eb0b260c01b611522565b61124f67cdfda3bde14a6b9a60c01b611522565b600560008373ffffffffffffffffffffffffffffffffffffffff1673ffffffffffffffffffffffffffffffffffffffff168152602001908152602001600020549050919050565b600f81565b600360009054906101000a900473ffffffffffffffffffffffffffffffffffffffff1681565b6112d56715bb69c323d5093260c01b611522565b6112e96716d900f3b7309c5c60c01b611522565b6112fd6797fa80cb868eb69160c01b611522565b60025434146113605761131a67c6e8dff4a740782d60c01b611522565b61132e6795e23a2ed93eb28a60c01b611522565b6040517f3f6b3f8300000000000000000000000000000000000000000000000000000000815260040160405180910390fd5b61137467168ba11238fffd8360c01b611522565b61138867be15fb4910771b8d60c01b611522565b34600560003373ffffffffffffffffffffffffffffffffffffffff1673ffffffffffffffffffffffffffffffffffffffff16815260200190815260200160002060008282546113d791906121e0565b925050819055506113f267d7a3780fbebc6c5660c01b611522565b611406679e88553d702f601460c01b611522565b3373ffffffffffffffffffffffffffffffffffffffff167f543ba50a5eec5e6178218e364b1d0f396157b3c8fa278522c2cb7fd99407d4743460405161144c9190611bc4565b60405180910390a2565b600061146c67f953aa1a2aaa4f6b60c01b611522565b611480673059237596174f6c60c01b611522565b611494676fae06a252f186fd60c01b611522565b600254905090565b6114a461199e565b600073ffffffffffffffffffffffffffffffffffffffff168173ffffffffffffffffffffffffffffffffffffffff16036115165760006040517f1e4fbdf700000000000000000000000000000000000000000000000000000000815260040161150d9190611b32565b60405180910390fd5b61151f81611a25565b50565b50565b606061153b6714cb411391f9164f60c01b611522565b61154f6783ee684106651b3360c01b611522565b61156367aeece0d8d4927fa460c01b611522565b60006040518060600160405280602481526020016124f160249139905061159467c6fd576576e1baf460c01b611522565b6115a8676d275ae33b94dfa160c01b611522565b6000600f67ffffffffffffffff8111156115c5576115c4611e51565b5b6040519080825280601f01601f1916602001820160405280156115f75781602001600182028036833780820191505090505b50905061160e67f36fe7bad5fc7da560c01b611522565b611622674561a2c290691b2b60c01b611522565b60006116386796e0105bfee2b3d760c01b611522565b61164c67e31f8e23dcbaa43560c01b611522565b60006116626751f5d5b3a0b5a4ad60c01b611522565b5b60004244336004548560405160200161168095949392919061227d565b6040516020818303038152906040528051906020012090506001925060005b600f81101561174f5760008651836020846116ba919061230b565b602081106116cb576116ca61233c565b5b1a60f81b60f81c60ff166116df919061230b565b90508681815181106116f4576116f361233c565b5b602001015160f81c60f81b8683815181106117125761171161233c565b5b60200101907effffffffffffffffffffffffffffffffffffffffffffffffffffffffffffff1916908160001a90535050808060010191505061169f565b50600084905060005b600660003373ffffffffffffffffffffffffffffffffffffffff1673ffffffffffffffffffffffffffffffffffffffff1681526020019081526020016000208054905081101561186557816040516020016117b3919061219a565b60405160208183030381529060405280519060200120600660003373ffffffffffffffffffffffffffffffffffffffff1673ffffffffffffffffffffffffffffffffffffffff168152602001908152602001600020828154811061181a5761181961233c565b5b9060005260206000200160405160200161183491906123ee565b60405160208183030381529060405280519060200120036118585760009450611865565b8080600101915050611758565b50828061187190612405565b9350505050811580156118845750600a81105b6116635761189c67035b7e121df0342d60c01b611522565b6118b067a49bddc6d56b637a60c01b611522565b8161192c576118c967757ae34c61af600560c01b611522565b6118dd673ddf480bf3a5268060c01b611522565b6118f1677063d424d4cd5c0c60c01b611522565b6040517f08c379a0000000000000000000000000000000000000000000000000000000008152600401611923906124d0565b60405180910390fd5b61194067f60bfd51a90ab04f60c01b611522565b61195467d3be0a0562a5efb160c01b611522565b6004600081548092919061196790612405565b919050555061198067c37b8038c1e6d70560c01b611522565b61199467ebfc6c0f010a8ea460c01b611522565b8294505050505090565b6119a6611ae9565b73ffffffffffffffffffffffffffffffffffffffff166119c46110d7565b73ffffffffffffffffffffffffffffffffffffffff1614611a23576119e7611ae9565b6040517f118cdaa7000000000000000000000000000000000000000000000000000000008152600401611a1a9190611b32565b60405180910390fd5b565b60008060009054906101000a900473ffffffffffffffffffffffffffffffffffffffff169050816000806101000a81548173ffffffffffffffffffffffffffffffffffffffff021916908373ffffffffffffffffffffffffffffffffffffffff1602179055508173ffffffffffffffffffffffffffffffffffffffff168173ffffffffffffffffffffffffffffffffffffffff167f8be0079c531659141344cd1fd0a4f28419497f9722a3daafe3b4186f6b6457e060405160405180910390a35050565b600033905090565b600073ffffffffffffffffffffffffffffffffffffffff82169050919050565b6000611b1c82611af1565b9050919050565b611b2c81611b11565b82525050565b6000602082019050611b476000830184611b23565b92915050565b600080fd5b611b5b81611b11565b8114611b6657600080fd5b50565b600081359050611b7881611b52565b92915050565b600060208284031215611b9457611b93611b4d565b5b6000611ba284828501611b69565b91505092915050565b6000819050919050565b611bbe81611bab565b82525050565b6000602082019050611bd96000830184611bb5565b92915050565b600081519050919050565b600082825260208201905092915050565b6000819050602082019050919050565b600081519050919050565b600082825260208201905092915050565b60005b83811015611c45578082015181840152602081019050611c2a565b60008484015250505050565b6000601f19601f8301169050919050565b6000611c6d82611c0b565b611c778185611c16565b9350611c87818560208601611c27565b611c9081611c51565b840191505092915050565b6000611ca78383611c62565b905092915050565b6000602082019050919050565b6000611cc782611bdf565b611cd18185611bea565b935083602082028501611ce385611bfb565b8060005b85811015611d1f5784840389528151611d008582611c9b565b9450611d0b83611caf565b925060208a01995050600181019050611ce7565b50829750879550505050505092915050565b60006020820190508181036000830152611d4b8184611cbc565b905092915050565b60008115159050919050565b611d6881611d53565b82525050565b6000602082019050611d836000830184611d5f565b92915050565b611d9281611bab565b8114611d9d57600080fd5b50565b600081359050611daf81611d89565b92915050565b600060208284031215611dcb57611dca611b4d565b5b6000611dd984828501611da0565b91505092915050565b600081905092915050565b50565b6000611dfd600083611de2565b9150611e0882611ded565b600082019050919050565b6000611e1e82611df0565b9150819050919050565b6000604082019050611e3d6000830185611b23565b611e4a6020830184611b23565b9392505050565b7f4e487b7100000000000000000000000000000000000000000000000000000000600052604160045260246000fd5b7f4e487b7100000000000000000000000000000000000000000000000000000000600052602260045260246000fd5b60006002820490506001821680611ec757607f821691505b602082108103611eda57611ed9611e80565b5b50919050565b60008190508160005260206000209050919050565b60006020601f8301049050919050565b600082821b905092915050565b600060088302611f427fffffffffffffffffffffffffffffffffffffffffffffffffffffffffffffffff82611f05565b611f4c8683611f05565b95508019841693508086168417925050509392505050565b6000819050919050565b6000611f89611f84611f7f84611bab565b611f64565b611bab565b9050919050565b6000819050919050565b611fa383611f6e565b611fb7611faf82611f90565b848454611f12565b825550505050565b600090565b611fcc611fbf565b611fd7818484611f9a565b505050565b5b81811015611ffb57611ff0600082611fc4565b600181019050611fdd565b5050565b601f8211156120405761201181611ee0565b61201a84611ef5565b81016020851015612029578190505b61203d61203585611ef5565b830182611fdc565b50505b505050565b600082821c905092915050565b600061206360001984600802612045565b1980831691505092915050565b600061207c8383612052565b9150826002028217905092915050565b61209582611c0b565b67ffffffffffffffff8111156120ae576120ad611e51565b5b6120b88254611eaf565b6120c3828285611fff565b600060209050601f8311600181146120f657600084156120e4578287015190505b6120ee8582612070565b865550612156565b601f19841661210486611ee0565b60005b8281101561212c57848901518255600182019150602085019450602081019050612107565b868310156121495784890151612145601f891682612052565b8355505b6001600288020188555050505b505050505050565b600081905092915050565b600061217482611c0b565b61217e818561215e565b935061218e818560208601611c27565b80840191505092915050565b60006121a68284612169565b915081905092915050565b7f4e487b7100000000000000000000000000000000000000000000000000000000600052601160045260246000fd5b60006121eb82611bab565b91506121f683611bab565b925082820190508082111561220e5761220d6121b1565b5b92915050565b6000819050919050565b61222f61222a82611bab565b612214565b82525050565b60008160601b9050919050565b600061224d82612235565b9050919050565b600061225f82612242565b9050919050565b61227761227282611b11565b612254565b82525050565b6000612289828861221e565b602082019150612299828761221e565b6020820191506122a98286612266565b6014820191506122b9828561221e565b6020820191506122c9828461221e565b6020820191508190509695505050505050565b7f4e487b7100000000000000000000000000000000000000000000000000000000600052601260045260246000fd5b600061231682611bab565b915061232183611bab565b925082612331576123306122dc565b5b828206905092915050565b7f4e487b7100000000000000000000000000000000000000000000000000000000600052603260045260246000fd5b6000815461237881611eaf565b612382818661215e565b9450600182166000811461239d57600181146123b2576123e5565b60ff19831686528115158202860193506123e5565b6123bb85611ee0565b60005b838110156123dd578154818901526001820191506020810190506123be565b838801955050505b50505092915050565b60006123fa828461236b565b915081905092915050565b600061241082611bab565b91507fffffffffffffffffffffffffffffffffffffffffffffffffffffffffffffffff8203612442576124416121b1565b5b600182019050919050565b600082825260208201905092915050565b7f4661696c656420746f2067656e6572617465206120756e69717565204944206160008201527f66746572207365766572616c20617474656d7074732e00000000000000000000602082015250565b60006124ba60368361244d565b91506124c58261245e565b604082019050919050565b600060208201905081810360008301526124e9816124ad565b905091905056fe4142434445464748494a4b4c4d4e4f505152535455565758595a30313233343536373839a2646970667358221220dbba15db7e0a2c3bd355e3037ff59cc520711f3341007daf5a11ab655791194f64736f6c634300081a0033",
  "linkReferences": {},
  "deployedLinkReferences": {}
}